{
  "address": "0xeDf3a0BF3DE039CCb62eb0E3c68582fF37220A0B",
  "abi": [
    {
      "inputs": [
        {
          "internalType": "uint256",
          "name": "cap_",
          "type": "uint256"
        },
        {
          "internalType": "string",
          "name": "name",
          "type": "string"
        },
        {
          "internalType": "string",
          "name": "symbol",
          "type": "string"
        },
        {
          "internalType": "address",
          "name": "defaultRoyaltyReceiver",
          "type": "address"
        },
        {
          "internalType": "uint96",
          "name": "defaultFeeNumerator",
          "type": "uint96"
        },
        {
          "internalType": "uint256",
          "name": "_startGiftingIndex",
          "type": "uint256"
        },
        {
          "internalType": "uint256",
          "name": "_endGiftingIndex",
          "type": "uint256"
        },
        {
          "internalType": "string",
          "name": "_contractUri",
          "type": "string"
        }
      ],
      "stateMutability": "nonpayable",
      "type": "constructor"
    },
    {
      "anonymous": false,
      "inputs": [
        {
          "indexed": true,
          "internalType": "address",
          "name": "owner",
          "type": "address"
        },
        {
          "indexed": true,
          "internalType": "address",
          "name": "approved",
          "type": "address"
        },
        {
          "indexed": true,
          "internalType": "uint256",
          "name": "tokenId",
          "type": "uint256"
        }
      ],
      "name": "Approval",
      "type": "event"
    },
    {
      "anonymous": false,
      "inputs": [
        {
          "indexed": true,
          "internalType": "address",
          "name": "owner",
          "type": "address"
        },
        {
          "indexed": true,
          "internalType": "address",
          "name": "operator",
          "type": "address"
        },
        {
          "indexed": false,
          "internalType": "bool",
          "name": "approved",
          "type": "bool"
        }
      ],
      "name": "ApprovalForAll",
      "type": "event"
    },
    {
      "anonymous": false,
      "inputs": [
        {
          "indexed": true,
          "internalType": "address",
          "name": "to",
          "type": "address"
        },
        {
          "indexed": false,
          "internalType": "uint256",
          "name": "tokenId",
          "type": "uint256"
        }
      ],
      "name": "Claimed",
      "type": "event"
    },
    {
      "anonymous": false,
      "inputs": [
        {
          "indexed": true,
          "internalType": "string",
          "name": "contractUri",
          "type": "string"
        }
      ],
      "name": "ContractURIUpdated",
      "type": "event"
    },
    {
      "anonymous": false,
      "inputs": [
        {
          "indexed": true,
          "internalType": "address",
          "name": "royaltyReceiver",
          "type": "address"
        },
        {
          "indexed": false,
          "internalType": "uint96",
          "name": "feeNumerator",
          "type": "uint96"
        }
      ],
      "name": "DefaultRoyaltyUpdated",
      "type": "event"
    },
    {
      "anonymous": false,
      "inputs": [
        {
          "indexed": true,
          "internalType": "address",
          "name": "to",
          "type": "address"
        },
        {
          "indexed": false,
          "internalType": "uint256",
          "name": "tokenId",
          "type": "uint256"
        }
      ],
      "name": "Gifted",
      "type": "event"
    },
    {
      "anonymous": false,
      "inputs": [
        {
          "indexed": false,
          "internalType": "uint256",
          "name": "startGiftingIndex",
          "type": "uint256"
        },
        {
          "indexed": false,
          "internalType": "uint256",
          "name": "endGiftingIndex",
          "type": "uint256"
        }
      ],
      "name": "GiftingIndexesUpdated",
      "type": "event"
    },
    {
      "anonymous": false,
      "inputs": [
        {
          "indexed": false,
          "internalType": "uint256",
          "name": "cap",
          "type": "uint256"
        },
        {
          "indexed": false,
          "internalType": "string",
          "name": "name",
          "type": "string"
        },
        {
          "indexed": false,
          "internalType": "string",
          "name": "symbol",
          "type": "string"
        },
        {
          "indexed": false,
          "internalType": "address",
          "name": "defaultRoyaltyReceiver",
          "type": "address"
        },
        {
          "indexed": false,
          "internalType": "uint96",
          "name": "defaultFeeNumerator",
          "type": "uint96"
        },
        {
          "indexed": false,
          "internalType": "uint256",
          "name": "startGiftingIndex",
          "type": "uint256"
        },
        {
          "indexed": false,
          "internalType": "uint256",
          "name": "endGiftingIndex",
          "type": "uint256"
        },
        {
          "indexed": false,
          "internalType": "string",
          "name": "contractUri",
          "type": "string"
        }
      ],
      "name": "Initialized",
      "type": "event"
    },
    {
      "anonymous": false,
      "inputs": [
        {
          "indexed": true,
          "internalType": "address",
          "name": "previousOwner",
          "type": "address"
        },
        {
          "indexed": true,
          "internalType": "address",
          "name": "newOwner",
          "type": "address"
        }
      ],
      "name": "OwnershipTransferred",
      "type": "event"
    },
    {
      "anonymous": false,
      "inputs": [
        {
          "indexed": true,
          "internalType": "uint256",
          "name": "tokenId",
          "type": "uint256"
        }
      ],
      "name": "TokenRoyaltyReseted",
      "type": "event"
    },
    {
      "anonymous": false,
      "inputs": [
        {
          "indexed": true,
          "internalType": "uint256",
          "name": "tokenId",
          "type": "uint256"
        },
        {
          "indexed": true,
          "internalType": "address",
          "name": "receiver",
          "type": "address"
        },
        {
          "indexed": false,
          "internalType": "uint96",
          "name": "feeNumerator",
          "type": "uint96"
        }
      ],
      "name": "TokenRoyaltyUpdated",
      "type": "event"
    },
    {
      "anonymous": false,
      "inputs": [
        {
          "indexed": true,
          "internalType": "address",
          "name": "from",
          "type": "address"
        },
        {
          "indexed": true,
          "internalType": "address",
          "name": "to",
          "type": "address"
        },
        {
          "indexed": true,
          "internalType": "uint256",
          "name": "tokenId",
          "type": "uint256"
        }
      ],
      "name": "Transfer",
      "type": "event"
    },
    {
      "inputs": [],
      "name": "CAP",
      "outputs": [
        {
          "internalType": "uint256",
          "name": "",
          "type": "uint256"
        }
      ],
      "stateMutability": "view",
      "type": "function"
    },
    {
      "inputs": [
        {
          "internalType": "address",
          "name": "to",
          "type": "address"
        },
        {
          "internalType": "uint256",
          "name": "tokenId",
          "type": "uint256"
        }
      ],
      "name": "approve",
      "outputs": [],
      "stateMutability": "nonpayable",
      "type": "function"
    },
    {
      "inputs": [
        {
          "internalType": "address",
          "name": "owner",
          "type": "address"
        }
      ],
      "name": "balanceOf",
      "outputs": [
        {
          "internalType": "uint256",
          "name": "",
          "type": "uint256"
        }
      ],
      "stateMutability": "view",
      "type": "function"
    },
    {
      "inputs": [],
      "name": "claim",
      "outputs": [],
      "stateMutability": "nonpayable",
      "type": "function"
    },
    {
      "inputs": [],
      "name": "contractURI",
      "outputs": [
        {
          "internalType": "string",
          "name": "",
          "type": "string"
        }
      ],
      "stateMutability": "view",
      "type": "function"
    },
    {
      "inputs": [],
      "name": "contractUri",
      "outputs": [
        {
          "internalType": "string",
          "name": "",
          "type": "string"
        }
      ],
      "stateMutability": "view",
      "type": "function"
    },
    {
      "inputs": [],
      "name": "endGiftingIndex",
      "outputs": [
        {
          "internalType": "uint256",
          "name": "",
          "type": "uint256"
        }
      ],
      "stateMutability": "view",
      "type": "function"
    },
    {
      "inputs": [
        {
          "internalType": "uint256",
          "name": "tokenId",
          "type": "uint256"
        }
      ],
      "name": "getApproved",
      "outputs": [
        {
          "internalType": "address",
          "name": "",
          "type": "address"
        }
      ],
      "stateMutability": "view",
      "type": "function"
    },
    {
      "inputs": [
        {
          "internalType": "address",
          "name": "to",
          "type": "address"
        }
      ],
      "name": "gift",
      "outputs": [],
      "stateMutability": "nonpayable",
      "type": "function"
    },
    {
      "inputs": [
        {
          "internalType": "address",
          "name": "owner",
          "type": "address"
        },
        {
          "internalType": "address",
          "name": "operator",
          "type": "address"
        }
      ],
      "name": "isApprovedForAll",
      "outputs": [
        {
          "internalType": "bool",
          "name": "",
          "type": "bool"
        }
      ],
      "stateMutability": "view",
      "type": "function"
    },
    {
      "inputs": [],
      "name": "name",
      "outputs": [
        {
          "internalType": "string",
          "name": "",
          "type": "string"
        }
      ],
      "stateMutability": "view",
      "type": "function"
    },
    {
      "inputs": [],
      "name": "owner",
      "outputs": [
        {
          "internalType": "address",
          "name": "",
          "type": "address"
        }
      ],
      "stateMutability": "view",
      "type": "function"
    },
    {
      "inputs": [
        {
          "internalType": "uint256",
          "name": "tokenId",
          "type": "uint256"
        }
      ],
      "name": "ownerOf",
      "outputs": [
        {
          "internalType": "address",
          "name": "",
          "type": "address"
        }
      ],
      "stateMutability": "view",
      "type": "function"
    },
    {
      "inputs": [],
      "name": "renounceOwnership",
      "outputs": [],
      "stateMutability": "nonpayable",
      "type": "function"
    },
    {
      "inputs": [
        {
          "internalType": "uint256",
          "name": "tokenId",
          "type": "uint256"
        }
      ],
      "name": "resetTokenRoyalty",
      "outputs": [],
      "stateMutability": "nonpayable",
      "type": "function"
    },
    {
      "inputs": [
        {
          "internalType": "uint256",
          "name": "tokenId",
          "type": "uint256"
        },
        {
          "internalType": "uint256",
          "name": "salePrice",
          "type": "uint256"
        }
      ],
      "name": "royaltyInfo",
      "outputs": [
        {
          "internalType": "address",
          "name": "receiver",
          "type": "address"
        },
        {
          "internalType": "uint256",
          "name": "royaltyAmount",
          "type": "uint256"
        }
      ],
      "stateMutability": "view",
      "type": "function"
    },
    {
      "inputs": [],
      "name": "safeMint",
      "outputs": [
        {
          "internalType": "uint256",
          "name": "",
          "type": "uint256"
        }
      ],
      "stateMutability": "nonpayable",
      "type": "function"
    },
    {
      "inputs": [
        {
          "internalType": "uint256",
          "name": "quantity",
          "type": "uint256"
        }
      ],
      "name": "safeMintBatch",
      "outputs": [
        {
          "internalType": "uint256",
          "name": "",
          "type": "uint256"
        }
      ],
      "stateMutability": "nonpayable",
      "type": "function"
    },
    {
      "inputs": [
        {
          "internalType": "address",
          "name": "from",
          "type": "address"
        },
        {
          "internalType": "address",
          "name": "to",
          "type": "address"
        },
        {
          "internalType": "uint256",
          "name": "tokenId",
          "type": "uint256"
        }
      ],
      "name": "safeTransferFrom",
      "outputs": [],
      "stateMutability": "nonpayable",
      "type": "function"
    },
    {
      "inputs": [
        {
          "internalType": "address",
          "name": "from",
          "type": "address"
        },
        {
          "internalType": "address",
          "name": "to",
          "type": "address"
        },
        {
          "internalType": "uint256",
          "name": "tokenId",
          "type": "uint256"
        },
        {
          "internalType": "bytes",
          "name": "data",
          "type": "bytes"
        }
      ],
      "name": "safeTransferFrom",
      "outputs": [],
      "stateMutability": "nonpayable",
      "type": "function"
    },
    {
      "inputs": [
        {
          "internalType": "address",
          "name": "operator",
          "type": "address"
        },
        {
          "internalType": "bool",
          "name": "approved",
          "type": "bool"
        }
      ],
      "name": "setApprovalForAll",
      "outputs": [],
      "stateMutability": "nonpayable",
      "type": "function"
    },
    {
      "inputs": [
        {
          "internalType": "string",
          "name": "_contractUri",
          "type": "string"
        }
      ],
      "name": "setContractURI",
      "outputs": [],
      "stateMutability": "nonpayable",
      "type": "function"
    },
    {
      "inputs": [
        {
          "internalType": "address",
          "name": "receiver",
          "type": "address"
        },
        {
          "internalType": "uint96",
          "name": "feeNumerator",
          "type": "uint96"
        }
      ],
      "name": "setDefaultRoyalty",
      "outputs": [],
      "stateMutability": "nonpayable",
      "type": "function"
    },
    {
      "inputs": [
        {
          "internalType": "uint256",
          "name": "startIndex",
          "type": "uint256"
        },
        {
          "internalType": "uint256",
          "name": "endIndex",
          "type": "uint256"
        }
      ],
      "name": "setGiftingIndexes",
      "outputs": [],
      "stateMutability": "nonpayable",
      "type": "function"
    },
    {
      "inputs": [
        {
          "internalType": "uint256",
          "name": "tokenId",
          "type": "uint256"
        },
        {
          "internalType": "address",
          "name": "receiver",
          "type": "address"
        },
        {
          "internalType": "uint96",
          "name": "feeNumerator",
          "type": "uint96"
        }
      ],
      "name": "setTokenRoyalty",
      "outputs": [],
      "stateMutability": "nonpayable",
      "type": "function"
    },
    {
      "inputs": [
        {
          "internalType": "uint256",
          "name": "tokenId",
          "type": "uint256"
        },
        {
          "internalType": "string",
          "name": "_tokenURI",
          "type": "string"
        }
      ],
      "name": "setTokenURI",
      "outputs": [],
      "stateMutability": "nonpayable",
      "type": "function"
    },
    {
      "inputs": [
        {
          "internalType": "uint256",
          "name": "startTokenId",
          "type": "uint256"
        },
        {
          "internalType": "string[]",
          "name": "tokenURIs",
          "type": "string[]"
        }
      ],
      "name": "setTokenURIBatch",
      "outputs": [],
      "stateMutability": "nonpayable",
      "type": "function"
    },
    {
      "inputs": [],
      "name": "startGiftingIndex",
      "outputs": [
        {
          "internalType": "uint256",
          "name": "",
          "type": "uint256"
        }
      ],
      "stateMutability": "view",
      "type": "function"
    },
    {
      "inputs": [
        {
          "internalType": "bytes4",
          "name": "interfaceId",
          "type": "bytes4"
        }
      ],
      "name": "supportsInterface",
      "outputs": [
        {
          "internalType": "bool",
          "name": "",
          "type": "bool"
        }
      ],
      "stateMutability": "view",
      "type": "function"
    },
    {
      "inputs": [],
      "name": "symbol",
      "outputs": [
        {
          "internalType": "string",
          "name": "",
          "type": "string"
        }
      ],
      "stateMutability": "view",
      "type": "function"
    },
    {
      "inputs": [
        {
          "internalType": "uint256",
          "name": "tokenId",
          "type": "uint256"
        }
      ],
      "name": "tokenURI",
      "outputs": [
        {
          "internalType": "string",
          "name": "",
          "type": "string"
        }
      ],
      "stateMutability": "view",
      "type": "function"
    },
    {
      "inputs": [
        {
          "internalType": "address",
          "name": "from",
          "type": "address"
        },
        {
          "internalType": "address",
          "name": "to",
          "type": "address"
        },
        {
          "internalType": "uint256",
          "name": "tokenId",
          "type": "uint256"
        }
      ],
      "name": "transferFrom",
      "outputs": [],
      "stateMutability": "nonpayable",
      "type": "function"
    },
    {
      "inputs": [
        {
          "internalType": "address",
          "name": "newOwner",
          "type": "address"
        }
      ],
      "name": "transferOwnership",
      "outputs": [],
      "stateMutability": "nonpayable",
      "type": "function"
    }
  ],
  "transactionHash": "0x25b8d657933d6d6401bef3547a9ba72b8a0cc303362b5dc9dd1341a546c255ba",
  "args": [
    5705,
    "CanisNFT",
    "CNFT",
    "0x779a3BC65F4F00D11cdA08FbeCa19B58D06758b1",
    1000,
    1,
    150,
    ""
  ],
  "numDeployments": 1,
  "solcInputHash": "c123473131ee6e4f22b54e7b4c16f190",
  "bytecode": "0x60a06040523480156200001157600080fd5b50604051620031be380380620031be83398101604081905262000034916200047f565b8651879087906200004d906000906020850190620002ca565b50805162000063906001906020840190620002ca565b505050620000806200007a6200017360201b60201c565b62000177565b60008811620000d65760405162461bcd60e51b815260206004820152601360248201527f4e46544361707065643a2063617020697320300000000000000000000000000060448201526064015b60405180910390fd5b6080889052600a839055600b829055600e8390558051620000ff90600c906020840190620002ca565b50620001178585620001c960201b6200115c1760201c565b7f9c83d62f1383b2fc7751629bae669029d8f5c66a7b0c68d74dee81c03a4aee5a60805188888888600a54600b54600c6040516200015d989796959493929190620005bf565b60405180910390a15050505050505050620006da565b3390565b600980546001600160a01b038381166001600160a01b0319831681179093556040519116919082907f8be0079c531659141344cd1fd0a4f28419497f9722a3daafe3b4186f6b6457e090600090a35050565b6127106001600160601b0382161115620002395760405162461bcd60e51b815260206004820152602a60248201527f455243323938313a20726f79616c7479206665652077696c6c206578636565646044820152692073616c65507269636560b01b6064820152608401620000cd565b6001600160a01b038216620002915760405162461bcd60e51b815260206004820152601960248201527f455243323938313a20696e76616c6964207265636569766572000000000000006044820152606401620000cd565b604080518082019091526001600160a01b039092168083526001600160601b039091166020909201829052600160a01b90910217600755565b828054620002d89062000582565b90600052602060002090601f016020900481019282620002fc576000855562000347565b82601f106200031757805160ff191683800117855562000347565b8280016001018555821562000347579182015b82811115620003475782518255916020019190600101906200032a565b506200035592915062000359565b5090565b5b808211156200035557600081556001016200035a565b634e487b7160e01b600052604160045260246000fd5b60005b83811015620003a357818101518382015260200162000389565b83811115620003b3576000848401525b50505050565b600082601f830112620003cb57600080fd5b81516001600160401b0380821115620003e857620003e862000370565b604051601f8301601f19908116603f0116810190828211818310171562000413576200041362000370565b816040528381528660208588010111156200042d57600080fd5b6200044084602083016020890162000386565b9695505050505050565b80516001600160a01b03811681146200046257600080fd5b919050565b80516001600160601b03811681146200046257600080fd5b600080600080600080600080610100898b0312156200049d57600080fd5b885160208a01519098506001600160401b0380821115620004bd57600080fd5b620004cb8c838d01620003b9565b985060408b0151915080821115620004e257600080fd5b620004f08c838d01620003b9565b97506200050060608c016200044a565b96506200051060808c0162000467565b955060a08b0151945060c08b0151935060e08b01519150808211156200053557600080fd5b50620005448b828c01620003b9565b9150509295985092959890939650565b600081518084526200056e81602086016020860162000386565b601f01601f19169290920160200192915050565b600181811c908216806200059757607f821691505b60208210811415620005b957634e487b7160e01b600052602260045260246000fd5b50919050565b60006101008a835260208181850152620005dc8285018c62000554565b91508382036040850152620005f2828b62000554565b6001600160a01b038a1660608601526001600160601b038916608086015260a0850188905260c0850187905284810360e08601528554909250600090600181811c90828116806200064457607f831692505b8583108114156200066357634e487b7160e01b85526022600452602485fd5b8287526020870196508080156200068357600181146200069557620006c2565b60ff19851688528688019550620006c2565b60008b81526020902060005b85811015620006bc5781548a820152908401908801620006a1565b89019650505b50505050508093505050509998505050505050505050565b608051612a9e62000720600039600081816104880152818161087001528181610a2201528181610b8501528181610d2a01528181610e10015261179b0152612a9e6000f3fe608060405234801561001057600080fd5b506004361061020b5760003560e01c8063715018a61161012a578063b88d4fde116100bd578063e8a3d4851161008c578063ec81b48311610071578063ec81b48314610483578063ed7619a9146104aa578063f2fde38b146104b357600080fd5b8063e8a3d4851461043f578063e985e9c51461044757600080fd5b8063b88d4fde146103fe578063c0e24d5e14610411578063c87b56dd14610419578063cbfc4bce1461042c57600080fd5b8063904f06ce116100f9578063904f06ce146103bd578063938e3d7b146103d057806395d89b41146103e3578063a22cb465146103eb57600080fd5b8063715018a6146103885780637ce9c519146103905780638a616bc0146103995780638da5cb5b146103ac57600080fd5b80632a55205a116101a25780635944c753116101715780635944c753146103475780636352211e1461035a5780636871ee401461036d57806370a082311461037557600080fd5b80632a55205a146102d957806336a6b8281461030b57806342842e0e1461032c5780634e71d92d1461033f57600080fd5b8063095ea7b3116101de578063095ea7b31461028d578063162094c4146102a05780631733c11a146102b357806323b872dd146102c657600080fd5b806301ffc9a71461021057806304634d8d1461023857806306fdde031461024d578063081812fc14610262575b600080fd5b61022361021e366004612332565b6104c6565b60405190151581526020015b60405180910390f35b61024b610246366004612380565b6104d7565b005b61025561053a565b60405161022f919061240d565b610275610270366004612420565b6105cc565b6040516001600160a01b03909116815260200161022f565b61024b61029b366004612439565b6105f3565b61024b6102ae366004612524565b61072a565b61024b6102c136600461256b565b610740565b61024b6102d436600461263a565b6107e4565b6102ec6102e736600461267b565b61086b565b604080516001600160a01b03909316835260208301919091520161022f565b61031e610319366004612420565b6108fd565b60405190815260200161022f565b61024b61033a36600461263a565b61093b565b61024b610956565b61024b61035536600461269d565b610a18565b610275610368366004612420565b610af9565b61031e610b5e565b61031e6103833660046126db565b610c72565b61024b610d0c565b61031e600b5481565b61024b6103a7366004612420565b610d20565b6009546001600160a01b0316610275565b61024b6103cb36600461267b565b610ddf565b61024b6103de3660046126f8565b610ece565b610255610f2c565b61024b6103f936600461272d565b610f3b565b61024b61040c36600461276b565b610f46565b610255610fd4565b610255610427366004612420565b611062565b61024b61043a3660046126db565b61106d565b6102556110bd565b6102236104553660046127eb565b6001600160a01b03918216600090815260056020908152604080832093909416825291909152205460ff1690565b61031e7f000000000000000000000000000000000000000000000000000000000000000081565b61031e600a5481565b61024b6104c13660046126db565b6110cc565b60006104d182611263565b92915050565b6104df6112a1565b6104e9828261115c565b6040516bffffffffffffffffffffffff821681526001600160a01b038316907fe12d7d5bdb8218a22277dca8f854dd4573a1cea3d3e4808dc567df9eb1c14bf4906020015b60405180910390a25050565b60606000805461054990612819565b80601f016020809104026020016040519081016040528092919081815260200182805461057590612819565b80156105c25780601f10610597576101008083540402835291602001916105c2565b820191906000526020600020905b8154815290600101906020018083116105a557829003601f168201915b5050505050905090565b60006105d7826112fb565b506000908152600460205260409020546001600160a01b031690565b60006105fe82610af9565b9050806001600160a01b0316836001600160a01b0316141561068d5760405162461bcd60e51b815260206004820152602160248201527f4552433732313a20617070726f76616c20746f2063757272656e74206f776e6560448201527f720000000000000000000000000000000000000000000000000000000000000060648201526084015b60405180910390fd5b336001600160a01b03821614806106a957506106a98133610455565b61071b5760405162461bcd60e51b815260206004820152603e60248201527f4552433732313a20617070726f76652063616c6c6572206973206e6f7420746f60448201527f6b656e206f776e6572206e6f7220617070726f76656420666f7220616c6c00006064820152608401610684565b610725838361135f565b505050565b6107326112a1565b61073c82826113da565b5050565b6107486112a1565b6101f481511061079a5760405162461bcd60e51b815260206004820152601d60248201527f43414e49534e46543a2042415443482053495a452045584345454445440000006044820152606401610684565b60005b8151811015610725576107d26107b3828561286a565b8383815181106107c5576107c5612882565b60200260200101516113da565b806107dc81612898565b91505061079d565b6107ee3382611483565b6108605760405162461bcd60e51b815260206004820152602e60248201527f4552433732313a2063616c6c6572206973206e6f7420746f6b656e206f776e6560448201527f72206e6f7220617070726f7665640000000000000000000000000000000000006064820152608401610684565b610725838383611502565b6000807f00000000000000000000000000000000000000000000000000000000000000008411156108e85760405162461bcd60e51b815260206004820152602160248201527f43414e49534e46543a20544f4b454e20494420444f4553204e4f5420455849536044820152601560fa1b6064820152608401610684565b6108f284846116dc565b915091509250929050565b60006109076112a1565b60005b8281101561092d5761091a610b5e565b508061092581612898565b91505061090a565b50600d546104d1565b919050565b61072583838360405180602001604052806000815250610f46565b61095f33610c72565b156109d25760405162461bcd60e51b815260206004820152602d60248201527f43414e49534e46543a204f574e45522043414e4e4f542048415645204d4f524560448201527f205448414e204f4e45204e4654000000000000000000000000000000000000006064820152608401610684565b60006109dd33611797565b60405181815290915033907fd8138f8a3f377c5259ca548e70e4c2de94f129f5a11036a15b69513cba2b426a9060200160405180910390a250565b610a206112a1565b7f0000000000000000000000000000000000000000000000000000000000000000831115610a9a5760405162461bcd60e51b815260206004820152602160248201527f43414e49534e46543a20544f4b454e20494420444f4553204e4f5420455849536044820152601560fa1b6064820152608401610684565b610aa583838361193e565b6040516bffffffffffffffffffffffff821681526001600160a01b0383169084907fe361b60b9164428d036a601ec08552e653bfe8c44389b8a4ebfd47281eb8741a906020015b60405180910390a3505050565b6000818152600260205260408120546001600160a01b0316806104d15760405162461bcd60e51b815260206004820152601860248201527f4552433732313a20696e76616c696420746f6b656e20494400000000000000006044820152606401610684565b6000610b686112a1565b610b76600d80546001019055565b6000610b81600d5490565b90507f0000000000000000000000000000000000000000000000000000000000000000811115610bf35760405162461bcd60e51b815260206004820152601760248201527f4e46544341505045443a206361702065786365656465640000000000000000006044820152606401610684565b610c6d306001600160a01b0316638da5cb5b6040518163ffffffff1660e01b815260040160206040518083038186803b158015610c2f57600080fd5b505afa158015610c43573d6000803e3d6000fd5b505050506040513d601f19601f82011682018060405250810190610c6791906128b3565b82611a56565b905090565b60006001600160a01b038216610cf05760405162461bcd60e51b815260206004820152602960248201527f4552433732313a2061646472657373207a65726f206973206e6f74206120766160448201527f6c6964206f776e657200000000000000000000000000000000000000000000006064820152608401610684565b506001600160a01b031660009081526003602052604090205490565b610d146112a1565b610d1e6000611a70565b565b610d286112a1565b7f0000000000000000000000000000000000000000000000000000000000000000811115610da25760405162461bcd60e51b815260206004820152602160248201527f43414e49534e46543a20544f4b454e20494420444f4553204e4f5420455849536044820152601560fa1b6064820152608401610684565b60008181526008602052604081205560405181907fd4a4110af244550f74d1974351897a9bc1e3a968ab0e84dafdef47733eba6d5590600090a250565b610de76112a1565b6000610df2600d5490565b9050808310158015610e075750600b54600a54115b8015610e3557507f0000000000000000000000000000000000000000000000000000000000000000600b5411155b610e815760405162461bcd60e51b815260206004820181905260248201527f43414e49534e46543a2057524f4e47204752494654494e4720494e44455845536044820152606401610684565b600a839055600b829055600e83905560408051848152602081018490527f2e623480aa4cbd7c590a325ea0d2f6ba03f113824171eec3d6db75837ebbbc57910160405180910390a1505050565b610ed66112a1565b8051610ee990600c906020840190612283565b50600c604051610ef991906128d0565b604051908190038120907f905d981207a7d0b6c62cc46ab0be2a076d0298e4a86d0ab79882dbd01ac3737890600090a250565b60606001805461054990612819565b61073c338383611acf565b610f503383611483565b610fc25760405162461bcd60e51b815260206004820152602e60248201527f4552433732313a2063616c6c6572206973206e6f7420746f6b656e206f776e6560448201527f72206e6f7220617070726f7665640000000000000000000000000000000000006064820152608401610684565b610fce84848484611b96565b50505050565b600c8054610fe190612819565b80601f016020809104026020016040519081016040528092919081815260200182805461100d90612819565b801561105a5780601f1061102f5761010080835404028352916020019161105a565b820191906000526020600020905b81548152906001019060200180831161103d57829003601f168201915b505050505081565b60606104d182611c14565b6110756112a1565b600061108082611797565b9050816001600160a01b03167fd27fb549aa167bf858a1420299ea6b1bbbc78233a5e884498b8b603ae4376b018260405161052e91815260200190565b6060600c805461054990612819565b6110d46112a1565b6001600160a01b0381166111505760405162461bcd60e51b815260206004820152602660248201527f4f776e61626c653a206e6577206f776e657220697320746865207a65726f206160448201527f64647265737300000000000000000000000000000000000000000000000000006064820152608401610684565b61115981611a70565b50565b6127106bffffffffffffffffffffffff821611156111cf5760405162461bcd60e51b815260206004820152602a60248201527f455243323938313a20726f79616c7479206665652077696c6c206578636565646044820152692073616c65507269636560b01b6064820152608401610684565b6001600160a01b0382166112255760405162461bcd60e51b815260206004820152601960248201527f455243323938313a20696e76616c6964207265636569766572000000000000006044820152606401610684565b604080518082019091526001600160a01b039092168083526bffffffffffffffffffffffff9091166020909201829052600160a01b90910217600755565b60006001600160e01b031982167f2a55205a0000000000000000000000000000000000000000000000000000000014806104d157506104d182611d1d565b6009546001600160a01b03163314610d1e5760405162461bcd60e51b815260206004820181905260248201527f4f776e61626c653a2063616c6c6572206973206e6f7420746865206f776e65726044820152606401610684565b6000818152600260205260409020546001600160a01b03166111595760405162461bcd60e51b815260206004820152601860248201527f4552433732313a20696e76616c696420746f6b656e20494400000000000000006044820152606401610684565b6000818152600460205260409020805473ffffffffffffffffffffffffffffffffffffffff19166001600160a01b03841690811790915581906113a182610af9565b6001600160a01b03167f8c5be1e5ebec7d5bd14f71427d1e84f3dd0314c0f7b2291e5b200ac8c7c3b92560405160405180910390a45050565b6000828152600260205260409020546001600160a01b03166114645760405162461bcd60e51b815260206004820152602e60248201527f45524337323155524953746f726167653a2055524920736574206f66206e6f6e60448201527f6578697374656e7420746f6b656e0000000000000000000000000000000000006064820152608401610684565b6000828152600660209081526040909120825161072592840190612283565b60008061148f83610af9565b9050806001600160a01b0316846001600160a01b031614806114d657506001600160a01b0380821660009081526005602090815260408083209388168352929052205460ff165b806114fa5750836001600160a01b03166114ef846105cc565b6001600160a01b0316145b949350505050565b826001600160a01b031661151582610af9565b6001600160a01b0316146115915760405162461bcd60e51b815260206004820152602560248201527f4552433732313a207472616e736665722066726f6d20696e636f72726563742060448201527f6f776e65720000000000000000000000000000000000000000000000000000006064820152608401610684565b6001600160a01b03821661160c5760405162461bcd60e51b8152602060048201526024808201527f4552433732313a207472616e7366657220746f20746865207a65726f2061646460448201527f72657373000000000000000000000000000000000000000000000000000000006064820152608401610684565b61161760008261135f565b6001600160a01b038316600090815260036020526040812080546001929061164090849061296c565b90915550506001600160a01b038216600090815260036020526040812080546001929061166e90849061286a565b9091555050600081815260026020526040808220805473ffffffffffffffffffffffffffffffffffffffff19166001600160a01b0386811691821790925591518493918716917fddf252ad1be2c89b69c2b068fc378daa952ba7f163c4a11628f55a4df523b3ef91a4505050565b60008281526008602090815260408083208151808301909252546001600160a01b038116808352600160a01b9091046bffffffffffffffffffffffff1692820192909252829161175b5750604080518082019091526007546001600160a01b0381168252600160a01b90046bffffffffffffffffffffffff1660208201525b60208101516000906127109061177f906bffffffffffffffffffffffff1687612983565b61178991906129b8565b915196919550909350505050565b60007f0000000000000000000000000000000000000000000000000000000000000000600e54111561180b5760405162461bcd60e51b815260206004820152601760248201527f4e46544341505045443a206361702065786365656465640000000000000000006044820152606401610684565b600a54600e54101580156118235750600b54600e5411155b6118955760405162461bcd60e51b815260206004820152602660248201527f43414e49534e46543a2043414e4e4f54204d494e54204e4f4e2047494654414260448201527f4c45204e465400000000000000000000000000000000000000000000000000006064820152608401610684565b6118a182600e5461135f565b61191e306001600160a01b0316638da5cb5b6040518163ffffffff1660e01b815260040160206040518083038186803b1580156118dd57600080fd5b505afa1580156118f1573d6000803e3d6000fd5b505050506040513d601f19601f8201168201806040525081019061191591906128b3565b83600e5461093b565b600e8054906001906000611932838561286a565b90915550909392505050565b6127106bffffffffffffffffffffffff821611156119b15760405162461bcd60e51b815260206004820152602a60248201527f455243323938313a20726f79616c7479206665652077696c6c206578636565646044820152692073616c65507269636560b01b6064820152608401610684565b6001600160a01b038216611a075760405162461bcd60e51b815260206004820152601b60248201527f455243323938313a20496e76616c696420706172616d657465727300000000006044820152606401610684565b6040805180820182526001600160a01b0393841681526bffffffffffffffffffffffff92831660208083019182526000968752600890529190942093519051909116600160a01b029116179055565b61073c828260405180602001604052806000815250611db8565b600980546001600160a01b0383811673ffffffffffffffffffffffffffffffffffffffff19831681179093556040519116919082907f8be0079c531659141344cd1fd0a4f28419497f9722a3daafe3b4186f6b6457e090600090a35050565b816001600160a01b0316836001600160a01b03161415611b315760405162461bcd60e51b815260206004820152601960248201527f4552433732313a20617070726f766520746f2063616c6c6572000000000000006044820152606401610684565b6001600160a01b03838116600081815260056020908152604080832094871680845294825291829020805460ff191686151590811790915591519182527f17307eab39ab6107e8899845ad3d59bd9653f200f220920489ca2b5937696c319101610aec565b611ba1848484611502565b611bad84848484611e36565b610fce5760405162461bcd60e51b815260206004820152603260248201527f4552433732313a207472616e7366657220746f206e6f6e20455243373231526560448201527131b2b4bb32b91034b6b83632b6b2b73a32b960711b6064820152608401610684565b6060611c1f826112fb565b60008281526006602052604081208054611c3890612819565b80601f0160208091040260200160405190810160405280929190818152602001828054611c6490612819565b8015611cb15780601f10611c8657610100808354040283529160200191611cb1565b820191906000526020600020905b815481529060010190602001808311611c9457829003601f168201915b505050505090506000611ccf60408051602081019091526000815290565b9050805160001415611ce2575092915050565b815115611d14578082604051602001611cfc9291906129cc565b60405160208183030381529060405292505050919050565b6114fa84611f8e565b60006001600160e01b031982167f80ac58cd000000000000000000000000000000000000000000000000000000001480611d8057506001600160e01b031982167f5b5e139f00000000000000000000000000000000000000000000000000000000145b806104d157507f01ffc9a7000000000000000000000000000000000000000000000000000000006001600160e01b03198316146104d1565b611dc28383612002565b611dcf6000848484611e36565b6107255760405162461bcd60e51b815260206004820152603260248201527f4552433732313a207472616e7366657220746f206e6f6e20455243373231526560448201527131b2b4bb32b91034b6b83632b6b2b73a32b960711b6064820152608401610684565b60006001600160a01b0384163b15611f8357604051630a85bd0160e11b81526001600160a01b0385169063150b7a0290611e7a9033908990889088906004016129fb565b602060405180830381600087803b158015611e9457600080fd5b505af1925050508015611ec4575060408051601f3d908101601f19168201909252611ec191810190612a37565b60015b611f69573d808015611ef2576040519150601f19603f3d011682016040523d82523d6000602084013e611ef7565b606091505b508051611f615760405162461bcd60e51b815260206004820152603260248201527f4552433732313a207472616e7366657220746f206e6f6e20455243373231526560448201527131b2b4bb32b91034b6b83632b6b2b73a32b960711b6064820152608401610684565b805181602001fd5b6001600160e01b031916630a85bd0160e11b1490506114fa565b506001949350505050565b6060611f99826112fb565b6000611fb060408051602081019091526000815290565b90506000815111611fd05760405180602001604052806000815250611ffb565b80611fda84612151565b604051602001611feb9291906129cc565b6040516020818303038152906040525b9392505050565b6001600160a01b0382166120585760405162461bcd60e51b815260206004820181905260248201527f4552433732313a206d696e7420746f20746865207a65726f20616464726573736044820152606401610684565b6000818152600260205260409020546001600160a01b0316156120bd5760405162461bcd60e51b815260206004820152601c60248201527f4552433732313a20746f6b656e20616c7265616479206d696e746564000000006044820152606401610684565b6001600160a01b03821660009081526003602052604081208054600192906120e690849061286a565b9091555050600081815260026020526040808220805473ffffffffffffffffffffffffffffffffffffffff19166001600160a01b03861690811790915590518392907fddf252ad1be2c89b69c2b068fc378daa952ba7f163c4a11628f55a4df523b3ef908290a45050565b60608161219157505060408051808201909152600181527f3000000000000000000000000000000000000000000000000000000000000000602082015290565b8160005b81156121bb57806121a581612898565b91506121b49050600a836129b8565b9150612195565b60008167ffffffffffffffff8111156121d6576121d6612465565b6040519080825280601f01601f191660200182016040528015612200576020820181803683370190505b5090505b84156114fa5761221560018361296c565b9150612222600a86612a54565b61222d90603061286a565b60f81b81838151811061224257612242612882565b60200101907effffffffffffffffffffffffffffffffffffffffffffffffffffffffffffff1916908160001a90535061227c600a866129b8565b9450612204565b82805461228f90612819565b90600052602060002090601f0160209004810192826122b157600085556122f7565b82601f106122ca57805160ff19168380011785556122f7565b828001600101855582156122f7579182015b828111156122f75782518255916020019190600101906122dc565b50612303929150612307565b5090565b5b808211156123035760008155600101612308565b6001600160e01b03198116811461115957600080fd5b60006020828403121561234457600080fd5b8135611ffb8161231c565b6001600160a01b038116811461115957600080fd5b80356bffffffffffffffffffffffff8116811461093657600080fd5b6000806040838503121561239357600080fd5b823561239e8161234f565b91506123ac60208401612364565b90509250929050565b60005b838110156123d05781810151838201526020016123b8565b83811115610fce5750506000910152565b600081518084526123f98160208601602086016123b5565b601f01601f19169290920160200192915050565b602081526000611ffb60208301846123e1565b60006020828403121561243257600080fd5b5035919050565b6000806040838503121561244c57600080fd5b82356124578161234f565b946020939093013593505050565b634e487b7160e01b600052604160045260246000fd5b604051601f8201601f1916810167ffffffffffffffff811182821017156124a4576124a4612465565b604052919050565b600067ffffffffffffffff8311156124c6576124c6612465565b6124d9601f8401601f191660200161247b565b90508281528383830111156124ed57600080fd5b828260208301376000602084830101529392505050565b600082601f83011261251557600080fd5b611ffb838335602085016124ac565b6000806040838503121561253757600080fd5b82359150602083013567ffffffffffffffff81111561255557600080fd5b61256185828601612504565b9150509250929050565b6000806040838503121561257e57600080fd5b8235915060208084013567ffffffffffffffff8082111561259e57600080fd5b818601915086601f8301126125b257600080fd5b8135818111156125c4576125c4612465565b8060051b6125d385820161247b565b918252838101850191858101908a8411156125ed57600080fd5b86860192505b838310156126295782358581111561260b5760008081fd5b6126198c89838a0101612504565b83525091860191908601906125f3565b809750505050505050509250929050565b60008060006060848603121561264f57600080fd5b833561265a8161234f565b9250602084013561266a8161234f565b929592945050506040919091013590565b6000806040838503121561268e57600080fd5b50508035926020909101359150565b6000806000606084860312156126b257600080fd5b8335925060208401356126c48161234f565b91506126d260408501612364565b90509250925092565b6000602082840312156126ed57600080fd5b8135611ffb8161234f565b60006020828403121561270a57600080fd5b813567ffffffffffffffff81111561272157600080fd5b6114fa84828501612504565b6000806040838503121561274057600080fd5b823561274b8161234f565b91506020830135801515811461276057600080fd5b809150509250929050565b6000806000806080858703121561278157600080fd5b843561278c8161234f565b9350602085013561279c8161234f565b925060408501359150606085013567ffffffffffffffff8111156127bf57600080fd5b8501601f810187136127d057600080fd5b6127df878235602084016124ac565b91505092959194509250565b600080604083850312156127fe57600080fd5b82356128098161234f565b915060208301356127608161234f565b600181811c9082168061282d57607f821691505b6020821081141561284e57634e487b7160e01b600052602260045260246000fd5b50919050565b634e487b7160e01b600052601160045260246000fd5b6000821982111561287d5761287d612854565b500190565b634e487b7160e01b600052603260045260246000fd5b60006000198214156128ac576128ac612854565b5060010190565b6000602082840312156128c557600080fd5b8151611ffb8161234f565b600080835481600182811c9150808316806128ec57607f831692505b602080841082141561290c57634e487b7160e01b86526022600452602486fd5b81801561292057600181146129315761295e565b60ff1986168952848901965061295e565b60008a81526020902060005b868110156129565781548b82015290850190830161293d565b505084890196505b509498975050505050505050565b60008282101561297e5761297e612854565b500390565b600081600019048311821515161561299d5761299d612854565b500290565b634e487b7160e01b600052601260045260246000fd5b6000826129c7576129c76129a2565b500490565b600083516129de8184602088016123b5565b8351908301906129f28183602088016123b5565b01949350505050565b60006001600160a01b03808716835280861660208401525083604083015260806060830152612a2d60808301846123e1565b9695505050505050565b600060208284031215612a4957600080fd5b8151611ffb8161231c565b600082612a6357612a636129a2565b50069056fea26469706673582212209d9c494821d5721027892a50b3ddb9dccc47a670a3355c08bd20313ec2c1206964736f6c63430008090033",
  "devdoc": {
    "kind": "dev",
    "methods": {
      "approve(address,uint256)": {
        "details": "See {IERC721-approve}."
      },
      "balanceOf(address)": {
        "details": "See {IERC721-balanceOf}."
      },
      "getApproved(uint256)": {
        "details": "See {IERC721-getApproved}."
      },
      "isApprovedForAll(address,address)": {
        "details": "See {IERC721-isApprovedForAll}."
      },
      "name()": {
        "details": "See {IERC721Metadata-name}."
      },
      "owner()": {
        "details": "Returns the address of the current owner."
      },
      "ownerOf(uint256)": {
        "details": "See {IERC721-ownerOf}."
      },
      "renounceOwnership()": {
        "details": "Leaves the contract without owner. It will not be possible to call `onlyOwner` functions anymore. Can only be called by the current owner. NOTE: Renouncing ownership will leave the contract without an owner, thereby removing any functionality that is only available to the owner."
      },
      "royaltyInfo(uint256,uint256)": {
        "details": "Returns how much royalty is owed and to whom, based on a sale price that may be denominated in any unit of exchange. The royalty amount is denominated and should be paid in that same unit of exchange."
      },
      "safeTransferFrom(address,address,uint256)": {
        "details": "See {IERC721-safeTransferFrom}."
      },
      "safeTransferFrom(address,address,uint256,bytes)": {
        "details": "See {IERC721-safeTransferFrom}."
      },
      "setApprovalForAll(address,bool)": {
        "details": "See {IERC721-setApprovalForAll}."
      },
      "symbol()": {
        "details": "See {IERC721Metadata-symbol}."
      },
      "tokenURI(uint256)": {
        "details": "See {IERC721Metadata-tokenURI}."
      },
      "transferFrom(address,address,uint256)": {
        "details": "See {IERC721-transferFrom}."
      },
      "transferOwnership(address)": {
        "details": "Transfers ownership of the contract to a new account (`newOwner`). Can only be called by the current owner."
      }
    },
    "version": 1
  },
  "userdoc": {
    "kind": "user",
    "methods": {},
    "version": 1
  },
  "storageLayout": {
    "storage": [
      {
        "astId": 157,
        "contract": "contracts/CanisNFT.sol:CanisNFT",
        "label": "_name",
        "offset": 0,
        "slot": "0",
        "type": "t_string_storage"
      },
      {
        "astId": 159,
        "contract": "contracts/CanisNFT.sol:CanisNFT",
        "label": "_symbol",
        "offset": 0,
        "slot": "1",
        "type": "t_string_storage"
      },
      {
        "astId": 163,
        "contract": "contracts/CanisNFT.sol:CanisNFT",
        "label": "_owners",
        "offset": 0,
        "slot": "2",
        "type": "t_mapping(t_uint256,t_address)"
      },
      {
        "astId": 167,
        "contract": "contracts/CanisNFT.sol:CanisNFT",
        "label": "_balances",
        "offset": 0,
        "slot": "3",
        "type": "t_mapping(t_address,t_uint256)"
      },
      {
        "astId": 171,
        "contract": "contracts/CanisNFT.sol:CanisNFT",
        "label": "_tokenApprovals",
        "offset": 0,
        "slot": "4",
        "type": "t_mapping(t_uint256,t_address)"
      },
      {
        "astId": 177,
        "contract": "contracts/CanisNFT.sol:CanisNFT",
        "label": "_operatorApprovals",
        "offset": 0,
        "slot": "5",
        "type": "t_mapping(t_address,t_mapping(t_address,t_bool))"
      },
      {
        "astId": 1145,
        "contract": "contracts/CanisNFT.sol:CanisNFT",
        "label": "_tokenURIs",
        "offset": 0,
        "slot": "6",
        "type": "t_mapping(t_uint256,t_string_storage)"
      },
      {
        "astId": 1301,
        "contract": "contracts/CanisNFT.sol:CanisNFT",
        "label": "_defaultRoyaltyInfo",
        "offset": 0,
        "slot": "7",
        "type": "t_struct(RoyaltyInfo)1298_storage"
      },
      {
        "astId": 1306,
        "contract": "contracts/CanisNFT.sol:CanisNFT",
        "label": "_tokenRoyaltyInfo",
        "offset": 0,
        "slot": "8",
        "type": "t_mapping(t_uint256,t_struct(RoyaltyInfo)1298_storage)"
      },
      {
        "astId": 7,
        "contract": "contracts/CanisNFT.sol:CanisNFT",
        "label": "_owner",
        "offset": 0,
        "slot": "9",
        "type": "t_address"
      },
      {
        "astId": 2152,
        "contract": "contracts/CanisNFT.sol:CanisNFT",
        "label": "startGiftingIndex",
        "offset": 0,
        "slot": "10",
        "type": "t_uint256"
      },
      {
        "astId": 2154,
        "contract": "contracts/CanisNFT.sol:CanisNFT",
        "label": "endGiftingIndex",
        "offset": 0,
        "slot": "11",
        "type": "t_uint256"
      },
      {
        "astId": 2156,
        "contract": "contracts/CanisNFT.sol:CanisNFT",
        "label": "contractUri",
        "offset": 0,
        "slot": "12",
        "type": "t_string_storage"
      },
      {
        "astId": 2163,
        "contract": "contracts/CanisNFT.sol:CanisNFT",
        "label": "_tokenIdCounter",
        "offset": 0,
        "slot": "13",
        "type": "t_struct(Counter)1805_storage"
      },
      {
        "astId": 2165,
        "contract": "contracts/CanisNFT.sol:CanisNFT",
        "label": "tokenIdGiftedIndex",
        "offset": 0,
        "slot": "14",
        "type": "t_uint256"
      }
    ],
    "types": {
      "t_address": {
        "encoding": "inplace",
        "label": "address",
        "numberOfBytes": "20"
      },
      "t_bool": {
        "encoding": "inplace",
        "label": "bool",
        "numberOfBytes": "1"
      },
      "t_mapping(t_address,t_bool)": {
        "encoding": "mapping",
        "key": "t_address",
        "label": "mapping(address => bool)",
        "numberOfBytes": "32",
        "value": "t_bool"
      },
      "t_mapping(t_address,t_mapping(t_address,t_bool))": {
        "encoding": "mapping",
        "key": "t_address",
        "label": "mapping(address => mapping(address => bool))",
        "numberOfBytes": "32",
        "value": "t_mapping(t_address,t_bool)"
      },
      "t_mapping(t_address,t_uint256)": {
        "encoding": "mapping",
        "key": "t_address",
        "label": "mapping(address => uint256)",
        "numberOfBytes": "32",
        "value": "t_uint256"
      },
      "t_mapping(t_uint256,t_address)": {
        "encoding": "mapping",
        "key": "t_uint256",
        "label": "mapping(uint256 => address)",
        "numberOfBytes": "32",
        "value": "t_address"
      },
      "t_mapping(t_uint256,t_string_storage)": {
        "encoding": "mapping",
        "key": "t_uint256",
        "label": "mapping(uint256 => string)",
        "numberOfBytes": "32",
        "value": "t_string_storage"
      },
      "t_mapping(t_uint256,t_struct(RoyaltyInfo)1298_storage)": {
        "encoding": "mapping",
        "key": "t_uint256",
        "label": "mapping(uint256 => struct ERC2981.RoyaltyInfo)",
        "numberOfBytes": "32",
        "value": "t_struct(RoyaltyInfo)1298_storage"
      },
      "t_string_storage": {
        "encoding": "bytes",
        "label": "string",
        "numberOfBytes": "32"
      },
      "t_struct(Counter)1805_storage": {
        "encoding": "inplace",
        "label": "struct Counters.Counter",
        "members": [
          {
            "astId": 1804,
            "contract": "contracts/CanisNFT.sol:CanisNFT",
            "label": "_value",
            "offset": 0,
            "slot": "0",
            "type": "t_uint256"
          }
        ],
        "numberOfBytes": "32"
      },
      "t_struct(RoyaltyInfo)1298_storage": {
        "encoding": "inplace",
        "label": "struct ERC2981.RoyaltyInfo",
        "members": [
          {
            "astId": 1295,
            "contract": "contracts/CanisNFT.sol:CanisNFT",
            "label": "receiver",
            "offset": 0,
            "slot": "0",
            "type": "t_address"
          },
          {
            "astId": 1297,
            "contract": "contracts/CanisNFT.sol:CanisNFT",
            "label": "royaltyFraction",
            "offset": 20,
            "slot": "0",
            "type": "t_uint96"
          }
        ],
        "numberOfBytes": "32"
      },
      "t_uint256": {
        "encoding": "inplace",
        "label": "uint256",
        "numberOfBytes": "32"
      },
      "t_uint96": {
        "encoding": "inplace",
        "label": "uint96",
        "numberOfBytes": "12"
      }
    }
  }
}