{
  "address": "0xb794540F3CD3E86ab5f17e26943Cc993B7414bCa",
  "abi": [
    {
      "inputs": [
        {
          "internalType": "uint256",
          "name": "cap_",
          "type": "uint256"
        }
      ],
      "stateMutability": "nonpayable",
      "type": "constructor"
    },
    {
      "anonymous": false,
      "inputs": [
        {
          "indexed": true,
          "internalType": "address",
          "name": "owner",
          "type": "address"
        },
        {
          "indexed": true,
          "internalType": "address",
          "name": "approved",
          "type": "address"
        },
        {
          "indexed": true,
          "internalType": "uint256",
          "name": "tokenId",
          "type": "uint256"
        }
      ],
      "name": "Approval",
      "type": "event"
    },
    {
      "anonymous": false,
      "inputs": [
        {
          "indexed": true,
          "internalType": "address",
          "name": "owner",
          "type": "address"
        },
        {
          "indexed": true,
          "internalType": "address",
          "name": "operator",
          "type": "address"
        },
        {
          "indexed": false,
          "internalType": "bool",
          "name": "approved",
          "type": "bool"
        }
      ],
      "name": "ApprovalForAll",
      "type": "event"
    },
    {
      "anonymous": false,
      "inputs": [
        {
          "indexed": true,
          "internalType": "address",
          "name": "previousOwner",
          "type": "address"
        },
        {
          "indexed": true,
          "internalType": "address",
          "name": "newOwner",
          "type": "address"
        }
      ],
      "name": "OwnershipTransferred",
      "type": "event"
    },
    {
      "anonymous": false,
      "inputs": [
        {
          "indexed": true,
          "internalType": "address",
          "name": "from",
          "type": "address"
        },
        {
          "indexed": true,
          "internalType": "address",
          "name": "to",
          "type": "address"
        },
        {
          "indexed": true,
          "internalType": "uint256",
          "name": "tokenId",
          "type": "uint256"
        }
      ],
      "name": "Transfer",
      "type": "event"
    },
    {
      "inputs": [],
      "name": "_cap",
      "outputs": [
        {
          "internalType": "uint256",
          "name": "",
          "type": "uint256"
        }
      ],
      "stateMutability": "view",
      "type": "function"
    },
    {
      "inputs": [
        {
          "internalType": "address",
          "name": "to",
          "type": "address"
        },
        {
          "internalType": "uint256",
          "name": "tokenId",
          "type": "uint256"
        }
      ],
      "name": "approve",
      "outputs": [],
      "stateMutability": "nonpayable",
      "type": "function"
    },
    {
      "inputs": [
        {
          "internalType": "address",
          "name": "owner",
          "type": "address"
        }
      ],
      "name": "balanceOf",
      "outputs": [
        {
          "internalType": "uint256",
          "name": "",
          "type": "uint256"
        }
      ],
      "stateMutability": "view",
      "type": "function"
    },
    {
      "inputs": [
        {
          "internalType": "uint256",
          "name": "tokenId",
          "type": "uint256"
        }
      ],
      "name": "getApproved",
      "outputs": [
        {
          "internalType": "address",
          "name": "",
          "type": "address"
        }
      ],
      "stateMutability": "view",
      "type": "function"
    },
    {
      "inputs": [
        {
          "internalType": "address",
          "name": "owner",
          "type": "address"
        },
        {
          "internalType": "address",
          "name": "operator",
          "type": "address"
        }
      ],
      "name": "isApprovedForAll",
      "outputs": [
        {
          "internalType": "bool",
          "name": "",
          "type": "bool"
        }
      ],
      "stateMutability": "view",
      "type": "function"
    },
    {
      "inputs": [],
      "name": "name",
      "outputs": [
        {
          "internalType": "string",
          "name": "",
          "type": "string"
        }
      ],
      "stateMutability": "view",
      "type": "function"
    },
    {
      "inputs": [],
      "name": "owner",
      "outputs": [
        {
          "internalType": "address",
          "name": "",
          "type": "address"
        }
      ],
      "stateMutability": "view",
      "type": "function"
    },
    {
      "inputs": [
        {
          "internalType": "uint256",
          "name": "tokenId",
          "type": "uint256"
        }
      ],
      "name": "ownerOf",
      "outputs": [
        {
          "internalType": "address",
          "name": "",
          "type": "address"
        }
      ],
      "stateMutability": "view",
      "type": "function"
    },
    {
      "inputs": [],
      "name": "renounceOwnership",
      "outputs": [],
      "stateMutability": "nonpayable",
      "type": "function"
    },
    {
      "inputs": [
        {
          "internalType": "address",
          "name": "to",
          "type": "address"
        }
      ],
      "name": "safeMint",
      "outputs": [
        {
          "internalType": "uint256",
          "name": "",
          "type": "uint256"
        }
      ],
      "stateMutability": "nonpayable",
      "type": "function"
    },
    {
      "inputs": [
        {
          "internalType": "address",
          "name": "from",
          "type": "address"
        },
        {
          "internalType": "address",
          "name": "to",
          "type": "address"
        },
        {
          "internalType": "uint256",
          "name": "tokenId",
          "type": "uint256"
        }
      ],
      "name": "safeTransferFrom",
      "outputs": [],
      "stateMutability": "nonpayable",
      "type": "function"
    },
    {
      "inputs": [
        {
          "internalType": "address",
          "name": "from",
          "type": "address"
        },
        {
          "internalType": "address",
          "name": "to",
          "type": "address"
        },
        {
          "internalType": "uint256",
          "name": "tokenId",
          "type": "uint256"
        },
        {
          "internalType": "bytes",
          "name": "data",
          "type": "bytes"
        }
      ],
      "name": "safeTransferFrom",
      "outputs": [],
      "stateMutability": "nonpayable",
      "type": "function"
    },
    {
      "inputs": [
        {
          "internalType": "address",
          "name": "operator",
          "type": "address"
        },
        {
          "internalType": "bool",
          "name": "approved",
          "type": "bool"
        }
      ],
      "name": "setApprovalForAll",
      "outputs": [],
      "stateMutability": "nonpayable",
      "type": "function"
    },
    {
      "inputs": [
        {
          "internalType": "bytes4",
          "name": "interfaceId",
          "type": "bytes4"
        }
      ],
      "name": "supportsInterface",
      "outputs": [
        {
          "internalType": "bool",
          "name": "",
          "type": "bool"
        }
      ],
      "stateMutability": "view",
      "type": "function"
    },
    {
      "inputs": [],
      "name": "symbol",
      "outputs": [
        {
          "internalType": "string",
          "name": "",
          "type": "string"
        }
      ],
      "stateMutability": "view",
      "type": "function"
    },
    {
      "inputs": [
        {
          "internalType": "uint256",
          "name": "tokenId",
          "type": "uint256"
        }
      ],
      "name": "tokenURI",
      "outputs": [
        {
          "internalType": "string",
          "name": "",
          "type": "string"
        }
      ],
      "stateMutability": "view",
      "type": "function"
    },
    {
      "inputs": [
        {
          "internalType": "address",
          "name": "from",
          "type": "address"
        },
        {
          "internalType": "address",
          "name": "to",
          "type": "address"
        },
        {
          "internalType": "uint256",
          "name": "tokenId",
          "type": "uint256"
        }
      ],
      "name": "transferFrom",
      "outputs": [],
      "stateMutability": "nonpayable",
      "type": "function"
    },
    {
      "inputs": [
        {
          "internalType": "address",
          "name": "newOwner",
          "type": "address"
        }
      ],
      "name": "transferOwnership",
      "outputs": [],
      "stateMutability": "nonpayable",
      "type": "function"
    }
  ],
  "transactionHash": "0x06a432d3090133598948a47b1c580421118949e9d36ff90eea05d6281181ff54",
  "args": [
    300
  ],
  "numDeployments": 1,
  "solcInputHash": "1acf3f2c048a7adfad8edc32391d0ef6",
  "bytecode": "0x60a06040523480156200001157600080fd5b5060405162001c2738038062001c27833981016040819052620000349162000209565b604080518082018252600581526443616e697360d81b60208083019182528351808501909452600384526221a0a760e91b9084015281519192916200007c9160009162000163565b5080516200009290600190602084019062000163565b505050620000af620000a96200010d60201b60201c565b62000111565b60008111620001045760405162461bcd60e51b815260206004820152601360248201527f4e46544361707065643a20636170206973203000000000000000000000000000604482015260640160405180910390fd5b60805262000260565b3390565b600780546001600160a01b038381166001600160a01b0319831681179093556040519116919082907f8be0079c531659141344cd1fd0a4f28419497f9722a3daafe3b4186f6b6457e090600090a35050565b828054620001719062000223565b90600052602060002090601f016020900481019282620001955760008555620001e0565b82601f10620001b057805160ff1916838001178555620001e0565b82800160010185558215620001e0579182015b82811115620001e0578251825591602001919060010190620001c3565b50620001ee929150620001f2565b5090565b5b80821115620001ee5760008155600101620001f3565b6000602082840312156200021c57600080fd5b5051919050565b600181811c908216806200023857607f821691505b602082108114156200025a57634e487b7160e01b600052602260045260246000fd5b50919050565b6080516119a46200028360003960008181610168015261069001526119a46000f3fe608060405234801561001057600080fd5b50600436106101365760003560e01c806370a08231116100b2578063a22cb46511610081578063c87b56dd11610066578063c87b56dd14610293578063e985e9c5146102a6578063f2fde38b146102e257600080fd5b8063a22cb4651461026d578063b88d4fde1461028057600080fd5b806370a0823114610239578063715018a61461024c5780638da5cb5b1461025457806395d89b411461026557600080fd5b8063095ea7b31161010957806340d097c3116100ee57806340d097c31461020057806342842e0e146102135780636352211e1461022657600080fd5b8063095ea7b3146101d857806323b872dd146101ed57600080fd5b806301ffc9a71461013b578063060cf4e81461016357806306fdde0314610198578063081812fc146101ad575b600080fd5b61014e6101493660046114fb565b6102f5565b60405190151581526020015b60405180910390f35b61018a7f000000000000000000000000000000000000000000000000000000000000000081565b60405190815260200161015a565b6101a0610392565b60405161015a9190611570565b6101c06101bb366004611583565b610424565b6040516001600160a01b03909116815260200161015a565b6101eb6101e63660046115b3565b61044b565b005b6101eb6101fb3660046115dd565b610582565b61018a61020e366004611619565b610609565b6101eb6102213660046115dd565b61073e565b6101c0610234366004611583565b610759565b61018a610247366004611619565b6107be565b6101eb610858565b6007546001600160a01b03166101c0565b6101a061086c565b6101eb61027b366004611634565b61087b565b6101eb61028e366004611686565b61088a565b6101a06102a1366004611583565b610918565b61014e6102b4366004611762565b6001600160a01b03918216600090815260056020908152604080832093909416825291909152205460ff1690565b6101eb6102f0366004611619565b610923565b60006001600160e01b031982167f80ac58cd00000000000000000000000000000000000000000000000000000000148061035857506001600160e01b031982167f5b5e139f00000000000000000000000000000000000000000000000000000000145b8061038c57507f01ffc9a7000000000000000000000000000000000000000000000000000000006001600160e01b03198316145b92915050565b6060600080546103a190611795565b80601f01602080910402602001604051908101604052809291908181526020018280546103cd90611795565b801561041a5780601f106103ef5761010080835404028352916020019161041a565b820191906000526020600020905b8154815290600101906020018083116103fd57829003601f168201915b5050505050905090565b600061042f826109b3565b506000908152600460205260409020546001600160a01b031690565b600061045682610759565b9050806001600160a01b0316836001600160a01b031614156104e55760405162461bcd60e51b815260206004820152602160248201527f4552433732313a20617070726f76616c20746f2063757272656e74206f776e6560448201527f720000000000000000000000000000000000000000000000000000000000000060648201526084015b60405180910390fd5b336001600160a01b0382161480610501575061050181336102b4565b6105735760405162461bcd60e51b815260206004820152603e60248201527f4552433732313a20617070726f76652063616c6c6572206973206e6f7420746f60448201527f6b656e206f776e6572206e6f7220617070726f76656420666f7220616c6c000060648201526084016104dc565b61057d8383610a17565b505050565b61058c3382610a92565b6105fe5760405162461bcd60e51b815260206004820152602e60248201527f4552433732313a2063616c6c6572206973206e6f7420746f6b656e206f776e6560448201527f72206e6f7220617070726f76656400000000000000000000000000000000000060648201526084016104dc565b61057d838383610b11565b6000610613610ceb565b61061c826107be565b1561068e5760405162461bcd60e51b8152602060048201526024808201527f4f574e45522043414e4e4f542048415645204d4f5245205448414e204f4e434560448201527f204e46540000000000000000000000000000000000000000000000000000000060648201526084016104dc565b7f00000000000000000000000000000000000000000000000000000000000000006106b860085490565b6106c39060016117e6565b11156107115760405162461bcd60e51b815260206004820152601760248201527f4e46544341505045443a2063617020657863656564656400000000000000000060448201526064016104dc565b61071f600880546001019055565b600061072a60085490565b90506107368382610d45565b90505b919050565b61057d8383836040518060200160405280600081525061088a565b6000818152600260205260408120546001600160a01b0316806107365760405162461bcd60e51b815260206004820152601860248201527f4552433732313a20696e76616c696420746f6b656e204944000000000000000060448201526064016104dc565b60006001600160a01b03821661083c5760405162461bcd60e51b815260206004820152602960248201527f4552433732313a2061646472657373207a65726f206973206e6f74206120766160448201527f6c6964206f776e6572000000000000000000000000000000000000000000000060648201526084016104dc565b506001600160a01b031660009081526003602052604090205490565b610860610ceb565b61086a6000610d5f565b565b6060600180546103a190611795565b610886338383610dbe565b5050565b6108943383610a92565b6109065760405162461bcd60e51b815260206004820152602e60248201527f4552433732313a2063616c6c6572206973206e6f7420746f6b656e206f776e6560448201527f72206e6f7220617070726f76656400000000000000000000000000000000000060648201526084016104dc565b61091284848484610e8d565b50505050565b606061038c82610f0b565b61092b610ceb565b6001600160a01b0381166109a75760405162461bcd60e51b815260206004820152602660248201527f4f776e61626c653a206e6577206f776e657220697320746865207a65726f206160448201527f646472657373000000000000000000000000000000000000000000000000000060648201526084016104dc565b6109b081610d5f565b50565b6000818152600260205260409020546001600160a01b03166109b05760405162461bcd60e51b815260206004820152601860248201527f4552433732313a20696e76616c696420746f6b656e204944000000000000000060448201526064016104dc565b6000818152600460205260409020805473ffffffffffffffffffffffffffffffffffffffff19166001600160a01b0384169081179091558190610a5982610759565b6001600160a01b03167f8c5be1e5ebec7d5bd14f71427d1e84f3dd0314c0f7b2291e5b200ac8c7c3b92560405160405180910390a45050565b600080610a9e83610759565b9050806001600160a01b0316846001600160a01b03161480610ae557506001600160a01b0380821660009081526005602090815260408083209388168352929052205460ff165b80610b095750836001600160a01b0316610afe84610424565b6001600160a01b0316145b949350505050565b826001600160a01b0316610b2482610759565b6001600160a01b031614610ba05760405162461bcd60e51b815260206004820152602560248201527f4552433732313a207472616e736665722066726f6d20696e636f72726563742060448201527f6f776e657200000000000000000000000000000000000000000000000000000060648201526084016104dc565b6001600160a01b038216610c1b5760405162461bcd60e51b8152602060048201526024808201527f4552433732313a207472616e7366657220746f20746865207a65726f2061646460448201527f726573730000000000000000000000000000000000000000000000000000000060648201526084016104dc565b610c26600082610a17565b6001600160a01b0383166000908152600360205260408120805460019290610c4f9084906117fe565b90915550506001600160a01b0382166000908152600360205260408120805460019290610c7d9084906117e6565b9091555050600081815260026020526040808220805473ffffffffffffffffffffffffffffffffffffffff19166001600160a01b0386811691821790925591518493918716917fddf252ad1be2c89b69c2b068fc378daa952ba7f163c4a11628f55a4df523b3ef91a4505050565b6007546001600160a01b0316331461086a5760405162461bcd60e51b815260206004820181905260248201527f4f776e61626c653a2063616c6c6572206973206e6f7420746865206f776e657260448201526064016104dc565b610886828260405180602001604052806000815250611007565b600780546001600160a01b0383811673ffffffffffffffffffffffffffffffffffffffff19831681179093556040519116919082907f8be0079c531659141344cd1fd0a4f28419497f9722a3daafe3b4186f6b6457e090600090a35050565b816001600160a01b0316836001600160a01b03161415610e205760405162461bcd60e51b815260206004820152601960248201527f4552433732313a20617070726f766520746f2063616c6c65720000000000000060448201526064016104dc565b6001600160a01b03838116600081815260056020908152604080832094871680845294825291829020805460ff191686151590811790915591519182527f17307eab39ab6107e8899845ad3d59bd9653f200f220920489ca2b5937696c31910160405180910390a3505050565b610e98848484610b11565b610ea484848484611085565b6109125760405162461bcd60e51b815260206004820152603260248201527f4552433732313a207472616e7366657220746f206e6f6e20455243373231526560448201527131b2b4bb32b91034b6b83632b6b2b73a32b960711b60648201526084016104dc565b6060610f16826109b3565b60008281526006602052604081208054610f2f90611795565b80601f0160208091040260200160405190810160405280929190818152602001828054610f5b90611795565b8015610fa85780601f10610f7d57610100808354040283529160200191610fa8565b820191906000526020600020905b815481529060010190602001808311610f8b57829003601f168201915b505050505090506000610fb96111dd565b9050805160001415610fcc575092915050565b815115610ffe578082604051602001610fe6929190611815565b60405160208183030381529060405292505050919050565b610b09846111fd565b6110118383611264565b61101e6000848484611085565b61057d5760405162461bcd60e51b815260206004820152603260248201527f4552433732313a207472616e7366657220746f206e6f6e20455243373231526560448201527131b2b4bb32b91034b6b83632b6b2b73a32b960711b60648201526084016104dc565b60006001600160a01b0384163b156111d257604051630a85bd0160e11b81526001600160a01b0385169063150b7a02906110c9903390899088908890600401611844565b602060405180830381600087803b1580156110e357600080fd5b505af1925050508015611113575060408051601f3d908101601f1916820190925261111091810190611880565b60015b6111b8573d808015611141576040519150601f19603f3d011682016040523d82523d6000602084013e611146565b606091505b5080516111b05760405162461bcd60e51b815260206004820152603260248201527f4552433732313a207472616e7366657220746f206e6f6e20455243373231526560448201527131b2b4bb32b91034b6b83632b6b2b73a32b960711b60648201526084016104dc565b805181602001fd5b6001600160e01b031916630a85bd0160e11b149050610b09565b506001949350505050565b60606040518060a001604052806062815260200161190d60629139905090565b6060611208826109b3565b60006112126111dd565b90506000815111611232576040518060200160405280600081525061125d565b8061123c846113b3565b60405160200161124d929190611815565b6040516020818303038152906040525b9392505050565b6001600160a01b0382166112ba5760405162461bcd60e51b815260206004820181905260248201527f4552433732313a206d696e7420746f20746865207a65726f206164647265737360448201526064016104dc565b6000818152600260205260409020546001600160a01b03161561131f5760405162461bcd60e51b815260206004820152601c60248201527f4552433732313a20746f6b656e20616c7265616479206d696e7465640000000060448201526064016104dc565b6001600160a01b03821660009081526003602052604081208054600192906113489084906117e6565b9091555050600081815260026020526040808220805473ffffffffffffffffffffffffffffffffffffffff19166001600160a01b03861690811790915590518392907fddf252ad1be2c89b69c2b068fc378daa952ba7f163c4a11628f55a4df523b3ef908290a45050565b6060816113f357505060408051808201909152600181527f3000000000000000000000000000000000000000000000000000000000000000602082015290565b8160005b811561141d57806114078161189d565b91506114169050600a836118ce565b91506113f7565b60008167ffffffffffffffff81111561143857611438611670565b6040519080825280601f01601f191660200182016040528015611462576020820181803683370190505b5090505b8415610b09576114776001836117fe565b9150611484600a866118e2565b61148f9060306117e6565b60f81b8183815181106114a4576114a46118f6565b60200101907effffffffffffffffffffffffffffffffffffffffffffffffffffffffffffff1916908160001a9053506114de600a866118ce565b9450611466565b6001600160e01b0319811681146109b057600080fd5b60006020828403121561150d57600080fd5b813561125d816114e5565b60005b8381101561153357818101518382015260200161151b565b838111156109125750506000910152565b6000815180845261155c816020860160208601611518565b601f01601f19169290920160200192915050565b60208152600061125d6020830184611544565b60006020828403121561159557600080fd5b5035919050565b80356001600160a01b038116811461073957600080fd5b600080604083850312156115c657600080fd5b6115cf8361159c565b946020939093013593505050565b6000806000606084860312156115f257600080fd5b6115fb8461159c565b92506116096020850161159c565b9150604084013590509250925092565b60006020828403121561162b57600080fd5b61125d8261159c565b6000806040838503121561164757600080fd5b6116508361159c565b91506020830135801515811461166557600080fd5b809150509250929050565b634e487b7160e01b600052604160045260246000fd5b6000806000806080858703121561169c57600080fd5b6116a58561159c565b93506116b36020860161159c565b925060408501359150606085013567ffffffffffffffff808211156116d757600080fd5b818701915087601f8301126116eb57600080fd5b8135818111156116fd576116fd611670565b604051601f8201601f19908116603f0116810190838211818310171561172557611725611670565b816040528281528a602084870101111561173e57600080fd5b82602086016020830137600060208483010152809550505050505092959194509250565b6000806040838503121561177557600080fd5b61177e8361159c565b915061178c6020840161159c565b90509250929050565b600181811c908216806117a957607f821691505b602082108114156117ca57634e487b7160e01b600052602260045260246000fd5b50919050565b634e487b7160e01b600052601160045260246000fd5b600082198211156117f9576117f96117d0565b500190565b600082821015611810576118106117d0565b500390565b60008351611827818460208801611518565b83519083019061183b818360208801611518565b01949350505050565b60006001600160a01b038087168352808616602084015250836040830152608060608301526118766080830184611544565b9695505050505050565b60006020828403121561189257600080fd5b815161125d816114e5565b60006000198214156118b1576118b16117d0565b5060010190565b634e487b7160e01b600052601260045260246000fd5b6000826118dd576118dd6118b8565b500490565b6000826118f1576118f16118b8565b500690565b634e487b7160e01b600052603260045260246000fdfe68747470733a2f2f626166796265696168736a36736f326a6f666561647770726f66767068786f3667356436363278777a6f6c7a7467367867733367347161347676692e697066732e6e667473746f726167652e6c696e6b2f6d657461646174612fa26469706673582212201d2fb17b6becdbb699f1bf9a04659e5bb9b071efa0489a93cd1ac69b1dcb129764736f6c63430008090033",
  "devdoc": {
    "kind": "dev",
    "methods": {
      "approve(address,uint256)": {
        "details": "See {IERC721-approve}."
      },
      "balanceOf(address)": {
        "details": "See {IERC721-balanceOf}."
      },
      "getApproved(uint256)": {
        "details": "See {IERC721-getApproved}."
      },
      "isApprovedForAll(address,address)": {
        "details": "See {IERC721-isApprovedForAll}."
      },
      "name()": {
        "details": "See {IERC721Metadata-name}."
      },
      "owner()": {
        "details": "Returns the address of the current owner."
      },
      "ownerOf(uint256)": {
        "details": "See {IERC721-ownerOf}."
      },
      "renounceOwnership()": {
        "details": "Leaves the contract without owner. It will not be possible to call `onlyOwner` functions anymore. Can only be called by the current owner. NOTE: Renouncing ownership will leave the contract without an owner, thereby removing any functionality that is only available to the owner."
      },
      "safeTransferFrom(address,address,uint256)": {
        "details": "See {IERC721-safeTransferFrom}."
      },
      "safeTransferFrom(address,address,uint256,bytes)": {
        "details": "See {IERC721-safeTransferFrom}."
      },
      "setApprovalForAll(address,bool)": {
        "details": "See {IERC721-setApprovalForAll}."
      },
      "supportsInterface(bytes4)": {
        "details": "See {IERC165-supportsInterface}."
      },
      "symbol()": {
        "details": "See {IERC721Metadata-symbol}."
      },
      "transferFrom(address,address,uint256)": {
        "details": "See {IERC721-transferFrom}."
      },
      "transferOwnership(address)": {
        "details": "Transfers ownership of the contract to a new account (`newOwner`). Can only be called by the current owner."
      }
    },
    "version": 1
  },
  "userdoc": {
    "kind": "user",
    "methods": {
      "safeMint(address)": {
        "notice": "It starts from one."
      }
    },
    "version": 1
  },
  "storageLayout": {
    "storage": [
      {
        "astId": 138,
        "contract": "contracts/CanisNFT.sol:CanisNFT",
        "label": "_name",
        "offset": 0,
        "slot": "0",
        "type": "t_string_storage"
      },
      {
        "astId": 140,
        "contract": "contracts/CanisNFT.sol:CanisNFT",
        "label": "_symbol",
        "offset": 0,
        "slot": "1",
        "type": "t_string_storage"
      },
      {
        "astId": 144,
        "contract": "contracts/CanisNFT.sol:CanisNFT",
        "label": "_owners",
        "offset": 0,
        "slot": "2",
        "type": "t_mapping(t_uint256,t_address)"
      },
      {
        "astId": 148,
        "contract": "contracts/CanisNFT.sol:CanisNFT",
        "label": "_balances",
        "offset": 0,
        "slot": "3",
        "type": "t_mapping(t_address,t_uint256)"
      },
      {
        "astId": 152,
        "contract": "contracts/CanisNFT.sol:CanisNFT",
        "label": "_tokenApprovals",
        "offset": 0,
        "slot": "4",
        "type": "t_mapping(t_uint256,t_address)"
      },
      {
        "astId": 158,
        "contract": "contracts/CanisNFT.sol:CanisNFT",
        "label": "_operatorApprovals",
        "offset": 0,
        "slot": "5",
        "type": "t_mapping(t_address,t_mapping(t_address,t_bool))"
      },
      {
        "astId": 1126,
        "contract": "contracts/CanisNFT.sol:CanisNFT",
        "label": "_tokenURIs",
        "offset": 0,
        "slot": "6",
        "type": "t_mapping(t_uint256,t_string_storage)"
      },
      {
        "astId": 7,
        "contract": "contracts/CanisNFT.sol:CanisNFT",
        "label": "_owner",
        "offset": 0,
        "slot": "7",
        "type": "t_address"
      },
      {
        "astId": 1939,
        "contract": "contracts/CanisNFT.sol:CanisNFT",
        "label": "_tokenIdCounter",
        "offset": 0,
        "slot": "8",
        "type": "t_struct(Counter)1588_storage"
      }
    ],
    "types": {
      "t_address": {
        "encoding": "inplace",
        "label": "address",
        "numberOfBytes": "20"
      },
      "t_bool": {
        "encoding": "inplace",
        "label": "bool",
        "numberOfBytes": "1"
      },
      "t_mapping(t_address,t_bool)": {
        "encoding": "mapping",
        "key": "t_address",
        "label": "mapping(address => bool)",
        "numberOfBytes": "32",
        "value": "t_bool"
      },
      "t_mapping(t_address,t_mapping(t_address,t_bool))": {
        "encoding": "mapping",
        "key": "t_address",
        "label": "mapping(address => mapping(address => bool))",
        "numberOfBytes": "32",
        "value": "t_mapping(t_address,t_bool)"
      },
      "t_mapping(t_address,t_uint256)": {
        "encoding": "mapping",
        "key": "t_address",
        "label": "mapping(address => uint256)",
        "numberOfBytes": "32",
        "value": "t_uint256"
      },
      "t_mapping(t_uint256,t_address)": {
        "encoding": "mapping",
        "key": "t_uint256",
        "label": "mapping(uint256 => address)",
        "numberOfBytes": "32",
        "value": "t_address"
      },
      "t_mapping(t_uint256,t_string_storage)": {
        "encoding": "mapping",
        "key": "t_uint256",
        "label": "mapping(uint256 => string)",
        "numberOfBytes": "32",
        "value": "t_string_storage"
      },
      "t_string_storage": {
        "encoding": "bytes",
        "label": "string",
        "numberOfBytes": "32"
      },
      "t_struct(Counter)1588_storage": {
        "encoding": "inplace",
        "label": "struct Counters.Counter",
        "members": [
          {
            "astId": 1587,
            "contract": "contracts/CanisNFT.sol:CanisNFT",
            "label": "_value",
            "offset": 0,
            "slot": "0",
            "type": "t_uint256"
          }
        ],
        "numberOfBytes": "32"
      },
      "t_uint256": {
        "encoding": "inplace",
        "label": "uint256",
        "numberOfBytes": "32"
      }
    }
  }
}