{
  "address": "0xe2a18D9ec6959ED80Fe2c3923e36ED14ddaC0d6f",
  "abi": [
    {
      "inputs": [
        {
          "internalType": "uint256",
          "name": "cap_",
          "type": "uint256"
        },
        {
          "internalType": "string",
          "name": "_baseTokenUri",
          "type": "string"
        },
        {
          "internalType": "string",
          "name": "name",
          "type": "string"
        },
        {
          "internalType": "string",
          "name": "symbol",
          "type": "string"
        }
      ],
      "stateMutability": "nonpayable",
      "type": "constructor"
    },
    {
      "anonymous": false,
      "inputs": [
        {
          "indexed": true,
          "internalType": "address",
          "name": "owner",
          "type": "address"
        },
        {
          "indexed": true,
          "internalType": "address",
          "name": "approved",
          "type": "address"
        },
        {
          "indexed": true,
          "internalType": "uint256",
          "name": "tokenId",
          "type": "uint256"
        }
      ],
      "name": "Approval",
      "type": "event"
    },
    {
      "anonymous": false,
      "inputs": [
        {
          "indexed": true,
          "internalType": "address",
          "name": "owner",
          "type": "address"
        },
        {
          "indexed": true,
          "internalType": "address",
          "name": "operator",
          "type": "address"
        },
        {
          "indexed": false,
          "internalType": "bool",
          "name": "approved",
          "type": "bool"
        }
      ],
      "name": "ApprovalForAll",
      "type": "event"
    },
    {
      "anonymous": false,
      "inputs": [
        {
          "indexed": false,
          "internalType": "uint256",
          "name": "oldCap",
          "type": "uint256"
        },
        {
          "indexed": false,
          "internalType": "uint256",
          "name": "newCap",
          "type": "uint256"
        }
      ],
      "name": "CAPUpdated",
      "type": "event"
    },
    {
      "anonymous": false,
      "inputs": [
        {
          "indexed": false,
          "internalType": "uint256",
          "name": "cap",
          "type": "uint256"
        },
        {
          "indexed": false,
          "internalType": "string",
          "name": "tokenUri",
          "type": "string"
        },
        {
          "indexed": false,
          "internalType": "string",
          "name": "name",
          "type": "string"
        },
        {
          "indexed": false,
          "internalType": "string",
          "name": "symbol",
          "type": "string"
        }
      ],
      "name": "Initialized",
      "type": "event"
    },
    {
      "anonymous": false,
      "inputs": [
        {
          "indexed": true,
          "internalType": "address",
          "name": "previousOwner",
          "type": "address"
        },
        {
          "indexed": true,
          "internalType": "address",
          "name": "newOwner",
          "type": "address"
        }
      ],
      "name": "OwnershipTransferred",
      "type": "event"
    },
    {
      "anonymous": false,
      "inputs": [
        {
          "indexed": true,
          "internalType": "address",
          "name": "from",
          "type": "address"
        },
        {
          "indexed": true,
          "internalType": "address",
          "name": "to",
          "type": "address"
        },
        {
          "indexed": true,
          "internalType": "uint256",
          "name": "tokenId",
          "type": "uint256"
        }
      ],
      "name": "Transfer",
      "type": "event"
    },
    {
      "inputs": [],
      "name": "CAP",
      "outputs": [
        {
          "internalType": "uint256",
          "name": "",
          "type": "uint256"
        }
      ],
      "stateMutability": "view",
      "type": "function"
    },
    {
      "inputs": [
        {
          "internalType": "address",
          "name": "to",
          "type": "address"
        },
        {
          "internalType": "uint256",
          "name": "tokenId",
          "type": "uint256"
        }
      ],
      "name": "approve",
      "outputs": [],
      "stateMutability": "nonpayable",
      "type": "function"
    },
    {
      "inputs": [
        {
          "internalType": "address",
          "name": "owner",
          "type": "address"
        }
      ],
      "name": "balanceOf",
      "outputs": [
        {
          "internalType": "uint256",
          "name": "",
          "type": "uint256"
        }
      ],
      "stateMutability": "view",
      "type": "function"
    },
    {
      "inputs": [],
      "name": "baseTokenUri",
      "outputs": [
        {
          "internalType": "string",
          "name": "",
          "type": "string"
        }
      ],
      "stateMutability": "view",
      "type": "function"
    },
    {
      "inputs": [
        {
          "internalType": "uint256",
          "name": "tokenId",
          "type": "uint256"
        }
      ],
      "name": "getApproved",
      "outputs": [
        {
          "internalType": "address",
          "name": "",
          "type": "address"
        }
      ],
      "stateMutability": "view",
      "type": "function"
    },
    {
      "inputs": [
        {
          "internalType": "address",
          "name": "owner",
          "type": "address"
        },
        {
          "internalType": "address",
          "name": "operator",
          "type": "address"
        }
      ],
      "name": "isApprovedForAll",
      "outputs": [
        {
          "internalType": "bool",
          "name": "",
          "type": "bool"
        }
      ],
      "stateMutability": "view",
      "type": "function"
    },
    {
      "inputs": [],
      "name": "name",
      "outputs": [
        {
          "internalType": "string",
          "name": "",
          "type": "string"
        }
      ],
      "stateMutability": "view",
      "type": "function"
    },
    {
      "inputs": [],
      "name": "owner",
      "outputs": [
        {
          "internalType": "address",
          "name": "",
          "type": "address"
        }
      ],
      "stateMutability": "view",
      "type": "function"
    },
    {
      "inputs": [
        {
          "internalType": "uint256",
          "name": "tokenId",
          "type": "uint256"
        }
      ],
      "name": "ownerOf",
      "outputs": [
        {
          "internalType": "address",
          "name": "",
          "type": "address"
        }
      ],
      "stateMutability": "view",
      "type": "function"
    },
    {
      "inputs": [],
      "name": "renounceOwnership",
      "outputs": [],
      "stateMutability": "nonpayable",
      "type": "function"
    },
    {
      "inputs": [],
      "name": "safeMint",
      "outputs": [
        {
          "internalType": "uint256",
          "name": "",
          "type": "uint256"
        }
      ],
      "stateMutability": "nonpayable",
      "type": "function"
    },
    {
      "inputs": [
        {
          "internalType": "address",
          "name": "from",
          "type": "address"
        },
        {
          "internalType": "address",
          "name": "to",
          "type": "address"
        },
        {
          "internalType": "uint256",
          "name": "tokenId",
          "type": "uint256"
        }
      ],
      "name": "safeTransferFrom",
      "outputs": [],
      "stateMutability": "nonpayable",
      "type": "function"
    },
    {
      "inputs": [
        {
          "internalType": "address",
          "name": "from",
          "type": "address"
        },
        {
          "internalType": "address",
          "name": "to",
          "type": "address"
        },
        {
          "internalType": "uint256",
          "name": "tokenId",
          "type": "uint256"
        },
        {
          "internalType": "bytes",
          "name": "data",
          "type": "bytes"
        }
      ],
      "name": "safeTransferFrom",
      "outputs": [],
      "stateMutability": "nonpayable",
      "type": "function"
    },
    {
      "inputs": [
        {
          "internalType": "address",
          "name": "operator",
          "type": "address"
        },
        {
          "internalType": "bool",
          "name": "approved",
          "type": "bool"
        }
      ],
      "name": "setApprovalForAll",
      "outputs": [],
      "stateMutability": "nonpayable",
      "type": "function"
    },
    {
      "inputs": [
        {
          "internalType": "bytes4",
          "name": "interfaceId",
          "type": "bytes4"
        }
      ],
      "name": "supportsInterface",
      "outputs": [
        {
          "internalType": "bool",
          "name": "",
          "type": "bool"
        }
      ],
      "stateMutability": "view",
      "type": "function"
    },
    {
      "inputs": [],
      "name": "symbol",
      "outputs": [
        {
          "internalType": "string",
          "name": "",
          "type": "string"
        }
      ],
      "stateMutability": "view",
      "type": "function"
    },
    {
      "inputs": [
        {
          "internalType": "uint256",
          "name": "tokenId",
          "type": "uint256"
        }
      ],
      "name": "tokenURI",
      "outputs": [
        {
          "internalType": "string",
          "name": "",
          "type": "string"
        }
      ],
      "stateMutability": "view",
      "type": "function"
    },
    {
      "inputs": [
        {
          "internalType": "address",
          "name": "from",
          "type": "address"
        },
        {
          "internalType": "address",
          "name": "to",
          "type": "address"
        },
        {
          "internalType": "uint256",
          "name": "tokenId",
          "type": "uint256"
        }
      ],
      "name": "transferFrom",
      "outputs": [],
      "stateMutability": "nonpayable",
      "type": "function"
    },
    {
      "inputs": [
        {
          "internalType": "address",
          "name": "newOwner",
          "type": "address"
        }
      ],
      "name": "transferOwnership",
      "outputs": [],
      "stateMutability": "nonpayable",
      "type": "function"
    }
  ],
  "transactionHash": "0x77cb3370165f2679d38c7ba99356fa58ea644d6230b935157fa055041eb62c94",
  "args": [
    3,
    "1",
    "CanisNFT",
    "CAN"
  ],
  "numDeployments": 1,
  "solcInputHash": "f6880853548422fcd40011ff0e39d55c",
  "bytecode": "0x60a06040523480156200001157600080fd5b5060405162001ee638038062001ee6833981016040819052620000349162000312565b8151829082906200004d90600090602085019062000192565b5080516200006390600190602084019062000192565b505050620000806200007a6200013c60201b60201c565b62000140565b60008411620000d55760405162461bcd60e51b815260206004820152601360248201527f4e46544361707065643a20636170206973203000000000000000000000000000604482015260640160405180910390fd5b60808490528251620000ef90600890602086019062000192565b507f8020a5f971382e9d217d1dd65487674f40d471209268816f7343e58b9c2b96cc608051600884846040516200012a949392919062000419565b60405180910390a150505050620004fe565b3390565b600780546001600160a01b038381166001600160a01b0319831681179093556040519116919082907f8be0079c531659141344cd1fd0a4f28419497f9722a3daafe3b4186f6b6457e090600090a35050565b828054620001a090620003ae565b90600052602060002090601f016020900481019282620001c457600085556200020f565b82601f10620001df57805160ff19168380011785556200020f565b828001600101855582156200020f579182015b828111156200020f578251825591602001919060010190620001f2565b506200021d92915062000221565b5090565b5b808211156200021d576000815560010162000222565b634e487b7160e01b600052604160045260246000fd5b60005b838110156200026b57818101518382015260200162000251565b838111156200027b576000848401525b50505050565b600082601f8301126200029357600080fd5b81516001600160401b0380821115620002b057620002b062000238565b604051601f8301601f19908116603f01168101908282118183101715620002db57620002db62000238565b81604052838152866020858801011115620002f557600080fd5b620003088460208301602089016200024e565b9695505050505050565b600080600080608085870312156200032957600080fd5b845160208601519094506001600160401b03808211156200034957600080fd5b620003578883890162000281565b945060408701519150808211156200036e57600080fd5b6200037c8883890162000281565b935060608701519150808211156200039357600080fd5b50620003a28782880162000281565b91505092959194509250565b600181811c90821680620003c357607f821691505b60208210811415620003e557634e487b7160e01b600052602260045260246000fd5b50919050565b60008151808452620004058160208601602086016200024e565b601f01601f19169290920160200192915050565b848152600060206080818401526000865481600182811c9150808316806200044257607f831692505b8583108114156200046157634e487b7160e01b85526022600452602485fd5b6080880183905260a088018180156200048357600181146200049557620004c2565b60ff19861682528782019650620004c2565b60008d81526020902060005b86811015620004bc57815484820152908501908901620004a1565b83019750505b5050505050508381036040850152620004dc8187620003eb565b9150508281036060840152620004f38185620003eb565b979650505050505050565b6080516119c562000521600039600081816102d8015261072d01526119c56000f3fe608060405234801561001057600080fd5b50600436106101515760003560e01c8063715018a6116100cd578063b88d4fde11610081578063e985e9c511610066578063e985e9c514610297578063ec81b483146102d3578063f2fde38b146102fa57600080fd5b8063b88d4fde14610271578063c87b56dd1461028457600080fd5b80638da5cb5b116100b25780638da5cb5b1461024557806395d89b4114610256578063a22cb4651461025e57600080fd5b8063715018a6146102355780637a0101a21461023d57600080fd5b806323b872dd116101245780636352211e116101095780636352211e146101f95780636871ee401461020c57806370a082311461022257600080fd5b806323b872dd146101d357806342842e0e146101e657600080fd5b806301ffc9a71461015657806306fdde031461017e578063081812fc14610193578063095ea7b3146101be575b600080fd5b610169610164366004611579565b61030d565b60405190151581526020015b60405180910390f35b6101866103aa565b60405161017591906115ee565b6101a66101a1366004611601565b61043c565b6040516001600160a01b039091168152602001610175565b6101d16101cc366004611636565b610463565b005b6101d16101e1366004611660565b61059a565b6101d16101f4366004611660565b610621565b6101a6610207366004611601565b61063c565b6102146106a1565b604051908152602001610175565b61021461023036600461169c565b6107bf565b6101d1610859565b61018661086d565b6007546001600160a01b03166101a6565b6101866108fb565b6101d161026c3660046116b7565b61090a565b6101d161027f366004611709565b610919565b610186610292366004611601565b6109a7565b6101696102a53660046117e5565b6001600160a01b03918216600090815260056020908152604080832093909416825291909152205460ff1690565b6102147f000000000000000000000000000000000000000000000000000000000000000081565b6101d161030836600461169c565b6109b2565b60006001600160e01b031982167f80ac58cd00000000000000000000000000000000000000000000000000000000148061037057506001600160e01b031982167f5b5e139f00000000000000000000000000000000000000000000000000000000145b806103a457507f01ffc9a7000000000000000000000000000000000000000000000000000000006001600160e01b03198316145b92915050565b6060600080546103b990611818565b80601f01602080910402602001604051908101604052809291908181526020018280546103e590611818565b80156104325780601f1061040757610100808354040283529160200191610432565b820191906000526020600020905b81548152906001019060200180831161041557829003601f168201915b5050505050905090565b600061044782610a42565b506000908152600460205260409020546001600160a01b031690565b600061046e8261063c565b9050806001600160a01b0316836001600160a01b031614156104fd5760405162461bcd60e51b815260206004820152602160248201527f4552433732313a20617070726f76616c20746f2063757272656e74206f776e6560448201527f720000000000000000000000000000000000000000000000000000000000000060648201526084015b60405180910390fd5b336001600160a01b0382161480610519575061051981336102a5565b61058b5760405162461bcd60e51b815260206004820152603e60248201527f4552433732313a20617070726f76652063616c6c6572206973206e6f7420746f60448201527f6b656e206f776e6572206e6f7220617070726f76656420666f7220616c6c000060648201526084016104f4565b6105958383610aa6565b505050565b6105a43382610b21565b6106165760405162461bcd60e51b815260206004820152602e60248201527f4552433732313a2063616c6c6572206973206e6f7420746f6b656e206f776e6560448201527f72206e6f7220617070726f76656400000000000000000000000000000000000060648201526084016104f4565b610595838383610ba0565b61059583838360405180602001604052806000815250610919565b6000818152600260205260408120546001600160a01b0316806103a45760405162461bcd60e51b815260206004820152601860248201527f4552433732313a20696e76616c696420746f6b656e204944000000000000000060448201526064016104f4565b60006106ac336107bf565b1561071e5760405162461bcd60e51b8152602060048201526024808201527f4f574e45522043414e4e4f542048415645204d4f5245205448414e204f4e434560448201527f204e46540000000000000000000000000000000000000000000000000000000060648201526084016104f4565b600061072960095490565b90507f0000000000000000000000000000000000000000000000000000000000000000811061079a5760405162461bcd60e51b815260206004820152601760248201527f4e46544341505045443a2063617020657863656564656400000000000000000060448201526064016104f4565b6107a8600980546001019055565b60006107b360095490565b90506103a43382610d7a565b60006001600160a01b03821661083d5760405162461bcd60e51b815260206004820152602960248201527f4552433732313a2061646472657373207a65726f206973206e6f74206120766160448201527f6c6964206f776e6572000000000000000000000000000000000000000000000060648201526084016104f4565b506001600160a01b031660009081526003602052604090205490565b610861610d94565b61086b6000610dee565b565b6008805461087a90611818565b80601f01602080910402602001604051908101604052809291908181526020018280546108a690611818565b80156108f35780601f106108c8576101008083540402835291602001916108f3565b820191906000526020600020905b8154815290600101906020018083116108d657829003601f168201915b505050505081565b6060600180546103b990611818565b610915338383610e4d565b5050565b6109233383610b21565b6109955760405162461bcd60e51b815260206004820152602e60248201527f4552433732313a2063616c6c6572206973206e6f7420746f6b656e206f776e6560448201527f72206e6f7220617070726f76656400000000000000000000000000000000000060648201526084016104f4565b6109a184848484610f1c565b50505050565b60606103a482610f9a565b6109ba610d94565b6001600160a01b038116610a365760405162461bcd60e51b815260206004820152602660248201527f4f776e61626c653a206e6577206f776e657220697320746865207a65726f206160448201527f646472657373000000000000000000000000000000000000000000000000000060648201526084016104f4565b610a3f81610dee565b50565b6000818152600260205260409020546001600160a01b0316610a3f5760405162461bcd60e51b815260206004820152601860248201527f4552433732313a20696e76616c696420746f6b656e204944000000000000000060448201526064016104f4565b6000818152600460205260409020805473ffffffffffffffffffffffffffffffffffffffff19166001600160a01b0384169081179091558190610ae88261063c565b6001600160a01b03167f8c5be1e5ebec7d5bd14f71427d1e84f3dd0314c0f7b2291e5b200ac8c7c3b92560405160405180910390a45050565b600080610b2d8361063c565b9050806001600160a01b0316846001600160a01b03161480610b7457506001600160a01b0380821660009081526005602090815260408083209388168352929052205460ff165b80610b985750836001600160a01b0316610b8d8461043c565b6001600160a01b0316145b949350505050565b826001600160a01b0316610bb38261063c565b6001600160a01b031614610c2f5760405162461bcd60e51b815260206004820152602560248201527f4552433732313a207472616e736665722066726f6d20696e636f72726563742060448201527f6f776e657200000000000000000000000000000000000000000000000000000060648201526084016104f4565b6001600160a01b038216610caa5760405162461bcd60e51b8152602060048201526024808201527f4552433732313a207472616e7366657220746f20746865207a65726f2061646460448201527f726573730000000000000000000000000000000000000000000000000000000060648201526084016104f4565b610cb5600082610aa6565b6001600160a01b0383166000908152600360205260408120805460019290610cde908490611869565b90915550506001600160a01b0382166000908152600360205260408120805460019290610d0c908490611880565b9091555050600081815260026020526040808220805473ffffffffffffffffffffffffffffffffffffffff19166001600160a01b0386811691821790925591518493918716917fddf252ad1be2c89b69c2b068fc378daa952ba7f163c4a11628f55a4df523b3ef91a4505050565b610915828260405180602001604052806000815250611096565b6007546001600160a01b0316331461086b5760405162461bcd60e51b815260206004820181905260248201527f4f776e61626c653a2063616c6c6572206973206e6f7420746865206f776e657260448201526064016104f4565b600780546001600160a01b0383811673ffffffffffffffffffffffffffffffffffffffff19831681179093556040519116919082907f8be0079c531659141344cd1fd0a4f28419497f9722a3daafe3b4186f6b6457e090600090a35050565b816001600160a01b0316836001600160a01b03161415610eaf5760405162461bcd60e51b815260206004820152601960248201527f4552433732313a20617070726f766520746f2063616c6c65720000000000000060448201526064016104f4565b6001600160a01b03838116600081815260056020908152604080832094871680845294825291829020805460ff191686151590811790915591519182527f17307eab39ab6107e8899845ad3d59bd9653f200f220920489ca2b5937696c31910160405180910390a3505050565b610f27848484610ba0565b610f3384848484611114565b6109a15760405162461bcd60e51b815260206004820152603260248201527f4552433732313a207472616e7366657220746f206e6f6e20455243373231526560448201527131b2b4bb32b91034b6b83632b6b2b73a32b960711b60648201526084016104f4565b6060610fa582610a42565b60008281526006602052604081208054610fbe90611818565b80601f0160208091040260200160405190810160405280929190818152602001828054610fea90611818565b80156110375780601f1061100c57610100808354040283529160200191611037565b820191906000526020600020905b81548152906001019060200180831161101a57829003601f168201915b50505050509050600061104861126c565b905080516000141561105b575092915050565b81511561108d578082604051602001611075929190611898565b60405160208183030381529060405292505050919050565b610b988461127b565b6110a083836112e2565b6110ad6000848484611114565b6105955760405162461bcd60e51b815260206004820152603260248201527f4552433732313a207472616e7366657220746f206e6f6e20455243373231526560448201527131b2b4bb32b91034b6b83632b6b2b73a32b960711b60648201526084016104f4565b60006001600160a01b0384163b1561126157604051630a85bd0160e11b81526001600160a01b0385169063150b7a02906111589033908990889088906004016118c7565b602060405180830381600087803b15801561117257600080fd5b505af19250505080156111a2575060408051601f3d908101601f1916820190925261119f91810190611903565b60015b611247573d8080156111d0576040519150601f19603f3d011682016040523d82523d6000602084013e6111d5565b606091505b50805161123f5760405162461bcd60e51b815260206004820152603260248201527f4552433732313a207472616e7366657220746f206e6f6e20455243373231526560448201527131b2b4bb32b91034b6b83632b6b2b73a32b960711b60648201526084016104f4565b805181602001fd5b6001600160e01b031916630a85bd0160e11b149050610b98565b506001949350505050565b6060600880546103b990611818565b606061128682610a42565b600061129061126c565b905060008151116112b057604051806020016040528060008152506112db565b806112ba84611431565b6040516020016112cb929190611898565b6040516020818303038152906040525b9392505050565b6001600160a01b0382166113385760405162461bcd60e51b815260206004820181905260248201527f4552433732313a206d696e7420746f20746865207a65726f206164647265737360448201526064016104f4565b6000818152600260205260409020546001600160a01b03161561139d5760405162461bcd60e51b815260206004820152601c60248201527f4552433732313a20746f6b656e20616c7265616479206d696e7465640000000060448201526064016104f4565b6001600160a01b03821660009081526003602052604081208054600192906113c6908490611880565b9091555050600081815260026020526040808220805473ffffffffffffffffffffffffffffffffffffffff19166001600160a01b03861690811790915590518392907fddf252ad1be2c89b69c2b068fc378daa952ba7f163c4a11628f55a4df523b3ef908290a45050565b60608161147157505060408051808201909152600181527f3000000000000000000000000000000000000000000000000000000000000000602082015290565b8160005b811561149b578061148581611920565b91506114949050600a83611951565b9150611475565b60008167ffffffffffffffff8111156114b6576114b66116f3565b6040519080825280601f01601f1916602001820160405280156114e0576020820181803683370190505b5090505b8415610b98576114f5600183611869565b9150611502600a86611965565b61150d906030611880565b60f81b81838151811061152257611522611979565b60200101907effffffffffffffffffffffffffffffffffffffffffffffffffffffffffffff1916908160001a90535061155c600a86611951565b94506114e4565b6001600160e01b031981168114610a3f57600080fd5b60006020828403121561158b57600080fd5b81356112db81611563565b60005b838110156115b1578181015183820152602001611599565b838111156109a15750506000910152565b600081518084526115da816020860160208601611596565b601f01601f19169290920160200192915050565b6020815260006112db60208301846115c2565b60006020828403121561161357600080fd5b5035919050565b80356001600160a01b038116811461163157600080fd5b919050565b6000806040838503121561164957600080fd5b6116528361161a565b946020939093013593505050565b60008060006060848603121561167557600080fd5b61167e8461161a565b925061168c6020850161161a565b9150604084013590509250925092565b6000602082840312156116ae57600080fd5b6112db8261161a565b600080604083850312156116ca57600080fd5b6116d38361161a565b9150602083013580151581146116e857600080fd5b809150509250929050565b634e487b7160e01b600052604160045260246000fd5b6000806000806080858703121561171f57600080fd5b6117288561161a565b93506117366020860161161a565b925060408501359150606085013567ffffffffffffffff8082111561175a57600080fd5b818701915087601f83011261176e57600080fd5b813581811115611780576117806116f3565b604051601f8201601f19908116603f011681019083821181831017156117a8576117a86116f3565b816040528281528a60208487010111156117c157600080fd5b82602086016020830137600060208483010152809550505050505092959194509250565b600080604083850312156117f857600080fd5b6118018361161a565b915061180f6020840161161a565b90509250929050565b600181811c9082168061182c57607f821691505b6020821081141561184d57634e487b7160e01b600052602260045260246000fd5b50919050565b634e487b7160e01b600052601160045260246000fd5b60008282101561187b5761187b611853565b500390565b6000821982111561189357611893611853565b500190565b600083516118aa818460208801611596565b8351908301906118be818360208801611596565b01949350505050565b60006001600160a01b038087168352808616602084015250836040830152608060608301526118f960808301846115c2565b9695505050505050565b60006020828403121561191557600080fd5b81516112db81611563565b600060001982141561193457611934611853565b5060010190565b634e487b7160e01b600052601260045260246000fd5b6000826119605761196061193b565b500490565b6000826119745761197461193b565b500690565b634e487b7160e01b600052603260045260246000fdfea264697066735822122051338e650104307a2884e5688e172fa8add3af9567bcb435643dee2680ca275864736f6c63430008090033",
  "devdoc": {
    "kind": "dev",
    "methods": {
      "approve(address,uint256)": {
        "details": "See {IERC721-approve}."
      },
      "balanceOf(address)": {
        "details": "See {IERC721-balanceOf}."
      },
      "getApproved(uint256)": {
        "details": "See {IERC721-getApproved}."
      },
      "isApprovedForAll(address,address)": {
        "details": "See {IERC721-isApprovedForAll}."
      },
      "name()": {
        "details": "See {IERC721Metadata-name}."
      },
      "owner()": {
        "details": "Returns the address of the current owner."
      },
      "ownerOf(uint256)": {
        "details": "See {IERC721-ownerOf}."
      },
      "renounceOwnership()": {
        "details": "Leaves the contract without owner. It will not be possible to call `onlyOwner` functions anymore. Can only be called by the current owner. NOTE: Renouncing ownership will leave the contract without an owner, thereby removing any functionality that is only available to the owner."
      },
      "safeTransferFrom(address,address,uint256)": {
        "details": "See {IERC721-safeTransferFrom}."
      },
      "safeTransferFrom(address,address,uint256,bytes)": {
        "details": "See {IERC721-safeTransferFrom}."
      },
      "setApprovalForAll(address,bool)": {
        "details": "See {IERC721-setApprovalForAll}."
      },
      "supportsInterface(bytes4)": {
        "details": "See {IERC165-supportsInterface}."
      },
      "symbol()": {
        "details": "See {IERC721Metadata-symbol}."
      },
      "transferFrom(address,address,uint256)": {
        "details": "See {IERC721-transferFrom}."
      },
      "transferOwnership(address)": {
        "details": "Transfers ownership of the contract to a new account (`newOwner`). Can only be called by the current owner."
      }
    },
    "version": 1
  },
  "userdoc": {
    "kind": "user",
    "methods": {},
    "version": 1
  },
  "storageLayout": {
    "storage": [
      {
        "astId": 138,
        "contract": "contracts/CanisNFT.sol:CanisNFT",
        "label": "_name",
        "offset": 0,
        "slot": "0",
        "type": "t_string_storage"
      },
      {
        "astId": 140,
        "contract": "contracts/CanisNFT.sol:CanisNFT",
        "label": "_symbol",
        "offset": 0,
        "slot": "1",
        "type": "t_string_storage"
      },
      {
        "astId": 144,
        "contract": "contracts/CanisNFT.sol:CanisNFT",
        "label": "_owners",
        "offset": 0,
        "slot": "2",
        "type": "t_mapping(t_uint256,t_address)"
      },
      {
        "astId": 148,
        "contract": "contracts/CanisNFT.sol:CanisNFT",
        "label": "_balances",
        "offset": 0,
        "slot": "3",
        "type": "t_mapping(t_address,t_uint256)"
      },
      {
        "astId": 152,
        "contract": "contracts/CanisNFT.sol:CanisNFT",
        "label": "_tokenApprovals",
        "offset": 0,
        "slot": "4",
        "type": "t_mapping(t_uint256,t_address)"
      },
      {
        "astId": 158,
        "contract": "contracts/CanisNFT.sol:CanisNFT",
        "label": "_operatorApprovals",
        "offset": 0,
        "slot": "5",
        "type": "t_mapping(t_address,t_mapping(t_address,t_bool))"
      },
      {
        "astId": 1126,
        "contract": "contracts/CanisNFT.sol:CanisNFT",
        "label": "_tokenURIs",
        "offset": 0,
        "slot": "6",
        "type": "t_mapping(t_uint256,t_string_storage)"
      },
      {
        "astId": 7,
        "contract": "contracts/CanisNFT.sol:CanisNFT",
        "label": "_owner",
        "offset": 0,
        "slot": "7",
        "type": "t_address"
      },
      {
        "astId": 1934,
        "contract": "contracts/CanisNFT.sol:CanisNFT",
        "label": "baseTokenUri",
        "offset": 0,
        "slot": "8",
        "type": "t_string_storage"
      },
      {
        "astId": 1941,
        "contract": "contracts/CanisNFT.sol:CanisNFT",
        "label": "_tokenIdCounter",
        "offset": 0,
        "slot": "9",
        "type": "t_struct(Counter)1588_storage"
      }
    ],
    "types": {
      "t_address": {
        "encoding": "inplace",
        "label": "address",
        "numberOfBytes": "20"
      },
      "t_bool": {
        "encoding": "inplace",
        "label": "bool",
        "numberOfBytes": "1"
      },
      "t_mapping(t_address,t_bool)": {
        "encoding": "mapping",
        "key": "t_address",
        "label": "mapping(address => bool)",
        "numberOfBytes": "32",
        "value": "t_bool"
      },
      "t_mapping(t_address,t_mapping(t_address,t_bool))": {
        "encoding": "mapping",
        "key": "t_address",
        "label": "mapping(address => mapping(address => bool))",
        "numberOfBytes": "32",
        "value": "t_mapping(t_address,t_bool)"
      },
      "t_mapping(t_address,t_uint256)": {
        "encoding": "mapping",
        "key": "t_address",
        "label": "mapping(address => uint256)",
        "numberOfBytes": "32",
        "value": "t_uint256"
      },
      "t_mapping(t_uint256,t_address)": {
        "encoding": "mapping",
        "key": "t_uint256",
        "label": "mapping(uint256 => address)",
        "numberOfBytes": "32",
        "value": "t_address"
      },
      "t_mapping(t_uint256,t_string_storage)": {
        "encoding": "mapping",
        "key": "t_uint256",
        "label": "mapping(uint256 => string)",
        "numberOfBytes": "32",
        "value": "t_string_storage"
      },
      "t_string_storage": {
        "encoding": "bytes",
        "label": "string",
        "numberOfBytes": "32"
      },
      "t_struct(Counter)1588_storage": {
        "encoding": "inplace",
        "label": "struct Counters.Counter",
        "members": [
          {
            "astId": 1587,
            "contract": "contracts/CanisNFT.sol:CanisNFT",
            "label": "_value",
            "offset": 0,
            "slot": "0",
            "type": "t_uint256"
          }
        ],
        "numberOfBytes": "32"
      },
      "t_uint256": {
        "encoding": "inplace",
        "label": "uint256",
        "numberOfBytes": "32"
      }
    }
  }
}