{
  "address": "0xAD467E67b24604A2569f770Aa556891D1e1A1dC2",
  "abi": [
    {
      "inputs": [
        {
          "internalType": "uint256",
          "name": "cap_",
          "type": "uint256"
        },
        {
          "internalType": "string",
          "name": "name",
          "type": "string"
        },
        {
          "internalType": "string",
          "name": "symbol",
          "type": "string"
        },
        {
          "internalType": "address",
          "name": "defaultRoyaltyReceiver",
          "type": "address"
        },
        {
          "internalType": "uint96",
          "name": "defaultFeeNumerator",
          "type": "uint96"
        },
        {
          "internalType": "uint256",
          "name": "_startGiftingIndex",
          "type": "uint256"
        },
        {
          "internalType": "uint256",
          "name": "_endGiftingIndex",
          "type": "uint256"
        },
        {
          "internalType": "string",
          "name": "_contractUri",
          "type": "string"
        }
      ],
      "stateMutability": "nonpayable",
      "type": "constructor"
    },
    {
      "anonymous": false,
      "inputs": [
        {
          "indexed": true,
          "internalType": "address",
          "name": "owner",
          "type": "address"
        },
        {
          "indexed": true,
          "internalType": "address",
          "name": "approved",
          "type": "address"
        },
        {
          "indexed": true,
          "internalType": "uint256",
          "name": "tokenId",
          "type": "uint256"
        }
      ],
      "name": "Approval",
      "type": "event"
    },
    {
      "anonymous": false,
      "inputs": [
        {
          "indexed": true,
          "internalType": "address",
          "name": "owner",
          "type": "address"
        },
        {
          "indexed": true,
          "internalType": "address",
          "name": "operator",
          "type": "address"
        },
        {
          "indexed": false,
          "internalType": "bool",
          "name": "approved",
          "type": "bool"
        }
      ],
      "name": "ApprovalForAll",
      "type": "event"
    },
    {
      "anonymous": false,
      "inputs": [
        {
          "indexed": true,
          "internalType": "address",
          "name": "to",
          "type": "address"
        },
        {
          "indexed": false,
          "internalType": "uint256",
          "name": "tokenId",
          "type": "uint256"
        }
      ],
      "name": "Claimed",
      "type": "event"
    },
    {
      "anonymous": false,
      "inputs": [
        {
          "indexed": true,
          "internalType": "address",
          "name": "royaltyReceiver",
          "type": "address"
        },
        {
          "indexed": false,
          "internalType": "uint96",
          "name": "feeNumerator",
          "type": "uint96"
        }
      ],
      "name": "DefaultRoyaltyUpdated",
      "type": "event"
    },
    {
      "anonymous": false,
      "inputs": [
        {
          "indexed": true,
          "internalType": "address",
          "name": "to",
          "type": "address"
        },
        {
          "indexed": false,
          "internalType": "uint256",
          "name": "tokenId",
          "type": "uint256"
        }
      ],
      "name": "Gifted",
      "type": "event"
    },
    {
      "anonymous": false,
      "inputs": [
        {
          "indexed": false,
          "internalType": "uint256",
          "name": "startGiftingIndex",
          "type": "uint256"
        },
        {
          "indexed": false,
          "internalType": "uint256",
          "name": "endGiftingIndex",
          "type": "uint256"
        }
      ],
      "name": "GiftingIndexesUpdated",
      "type": "event"
    },
    {
      "anonymous": false,
      "inputs": [
        {
          "indexed": false,
          "internalType": "uint256",
          "name": "cap",
          "type": "uint256"
        },
        {
          "indexed": false,
          "internalType": "string",
          "name": "name",
          "type": "string"
        },
        {
          "indexed": false,
          "internalType": "string",
          "name": "symbol",
          "type": "string"
        },
        {
          "indexed": false,
          "internalType": "address",
          "name": "defaultRoyaltyReceiver",
          "type": "address"
        },
        {
          "indexed": false,
          "internalType": "uint96",
          "name": "defaultFeeNumerator",
          "type": "uint96"
        },
        {
          "indexed": false,
          "internalType": "uint256",
          "name": "startGiftingIndex",
          "type": "uint256"
        },
        {
          "indexed": false,
          "internalType": "uint256",
          "name": "endGiftingIndex",
          "type": "uint256"
        },
        {
          "indexed": false,
          "internalType": "string",
          "name": "contractUri",
          "type": "string"
        }
      ],
      "name": "Initialized",
      "type": "event"
    },
    {
      "anonymous": false,
      "inputs": [
        {
          "indexed": true,
          "internalType": "address",
          "name": "previousOwner",
          "type": "address"
        },
        {
          "indexed": true,
          "internalType": "address",
          "name": "newOwner",
          "type": "address"
        }
      ],
      "name": "OwnershipTransferred",
      "type": "event"
    },
    {
      "anonymous": false,
      "inputs": [
        {
          "indexed": true,
          "internalType": "uint256",
          "name": "tokenId",
          "type": "uint256"
        }
      ],
      "name": "TokenRoyaltyReseted",
      "type": "event"
    },
    {
      "anonymous": false,
      "inputs": [
        {
          "indexed": true,
          "internalType": "uint256",
          "name": "tokenId",
          "type": "uint256"
        },
        {
          "indexed": true,
          "internalType": "address",
          "name": "receiver",
          "type": "address"
        },
        {
          "indexed": false,
          "internalType": "uint96",
          "name": "feeNumerator",
          "type": "uint96"
        }
      ],
      "name": "TokenRoyaltyUpdated",
      "type": "event"
    },
    {
      "anonymous": false,
      "inputs": [
        {
          "indexed": true,
          "internalType": "address",
          "name": "from",
          "type": "address"
        },
        {
          "indexed": true,
          "internalType": "address",
          "name": "to",
          "type": "address"
        },
        {
          "indexed": true,
          "internalType": "uint256",
          "name": "tokenId",
          "type": "uint256"
        }
      ],
      "name": "Transfer",
      "type": "event"
    },
    {
      "inputs": [],
      "name": "CAP",
      "outputs": [
        {
          "internalType": "uint256",
          "name": "",
          "type": "uint256"
        }
      ],
      "stateMutability": "view",
      "type": "function"
    },
    {
      "inputs": [
        {
          "internalType": "address",
          "name": "to",
          "type": "address"
        },
        {
          "internalType": "uint256",
          "name": "tokenId",
          "type": "uint256"
        }
      ],
      "name": "approve",
      "outputs": [],
      "stateMutability": "nonpayable",
      "type": "function"
    },
    {
      "inputs": [
        {
          "internalType": "address",
          "name": "owner",
          "type": "address"
        }
      ],
      "name": "balanceOf",
      "outputs": [
        {
          "internalType": "uint256",
          "name": "",
          "type": "uint256"
        }
      ],
      "stateMutability": "view",
      "type": "function"
    },
    {
      "inputs": [],
      "name": "claim",
      "outputs": [],
      "stateMutability": "nonpayable",
      "type": "function"
    },
    {
      "inputs": [],
      "name": "contractURI",
      "outputs": [
        {
          "internalType": "string",
          "name": "",
          "type": "string"
        }
      ],
      "stateMutability": "view",
      "type": "function"
    },
    {
      "inputs": [],
      "name": "contractUri",
      "outputs": [
        {
          "internalType": "string",
          "name": "",
          "type": "string"
        }
      ],
      "stateMutability": "view",
      "type": "function"
    },
    {
      "inputs": [],
      "name": "endGiftingIndex",
      "outputs": [
        {
          "internalType": "uint256",
          "name": "",
          "type": "uint256"
        }
      ],
      "stateMutability": "view",
      "type": "function"
    },
    {
      "inputs": [
        {
          "internalType": "uint256",
          "name": "tokenId",
          "type": "uint256"
        }
      ],
      "name": "getApproved",
      "outputs": [
        {
          "internalType": "address",
          "name": "",
          "type": "address"
        }
      ],
      "stateMutability": "view",
      "type": "function"
    },
    {
      "inputs": [
        {
          "internalType": "address",
          "name": "to",
          "type": "address"
        }
      ],
      "name": "gift",
      "outputs": [],
      "stateMutability": "nonpayable",
      "type": "function"
    },
    {
      "inputs": [
        {
          "internalType": "address",
          "name": "owner",
          "type": "address"
        },
        {
          "internalType": "address",
          "name": "operator",
          "type": "address"
        }
      ],
      "name": "isApprovedForAll",
      "outputs": [
        {
          "internalType": "bool",
          "name": "",
          "type": "bool"
        }
      ],
      "stateMutability": "view",
      "type": "function"
    },
    {
      "inputs": [],
      "name": "name",
      "outputs": [
        {
          "internalType": "string",
          "name": "",
          "type": "string"
        }
      ],
      "stateMutability": "view",
      "type": "function"
    },
    {
      "inputs": [],
      "name": "owner",
      "outputs": [
        {
          "internalType": "address",
          "name": "",
          "type": "address"
        }
      ],
      "stateMutability": "view",
      "type": "function"
    },
    {
      "inputs": [
        {
          "internalType": "uint256",
          "name": "tokenId",
          "type": "uint256"
        }
      ],
      "name": "ownerOf",
      "outputs": [
        {
          "internalType": "address",
          "name": "",
          "type": "address"
        }
      ],
      "stateMutability": "view",
      "type": "function"
    },
    {
      "inputs": [],
      "name": "renounceOwnership",
      "outputs": [],
      "stateMutability": "nonpayable",
      "type": "function"
    },
    {
      "inputs": [
        {
          "internalType": "uint256",
          "name": "tokenId",
          "type": "uint256"
        }
      ],
      "name": "resetTokenRoyalty",
      "outputs": [],
      "stateMutability": "nonpayable",
      "type": "function"
    },
    {
      "inputs": [
        {
          "internalType": "uint256",
          "name": "tokenId",
          "type": "uint256"
        },
        {
          "internalType": "uint256",
          "name": "salePrice",
          "type": "uint256"
        }
      ],
      "name": "royaltyInfo",
      "outputs": [
        {
          "internalType": "address",
          "name": "receiver",
          "type": "address"
        },
        {
          "internalType": "uint256",
          "name": "royaltyAmount",
          "type": "uint256"
        }
      ],
      "stateMutability": "view",
      "type": "function"
    },
    {
      "inputs": [],
      "name": "safeMint",
      "outputs": [
        {
          "internalType": "uint256",
          "name": "",
          "type": "uint256"
        }
      ],
      "stateMutability": "nonpayable",
      "type": "function"
    },
    {
      "inputs": [
        {
          "internalType": "uint256",
          "name": "quantity",
          "type": "uint256"
        }
      ],
      "name": "safeMintBatch",
      "outputs": [
        {
          "internalType": "uint256",
          "name": "",
          "type": "uint256"
        }
      ],
      "stateMutability": "nonpayable",
      "type": "function"
    },
    {
      "inputs": [
        {
          "internalType": "address",
          "name": "from",
          "type": "address"
        },
        {
          "internalType": "address",
          "name": "to",
          "type": "address"
        },
        {
          "internalType": "uint256",
          "name": "tokenId",
          "type": "uint256"
        }
      ],
      "name": "safeTransferFrom",
      "outputs": [],
      "stateMutability": "nonpayable",
      "type": "function"
    },
    {
      "inputs": [
        {
          "internalType": "address",
          "name": "from",
          "type": "address"
        },
        {
          "internalType": "address",
          "name": "to",
          "type": "address"
        },
        {
          "internalType": "uint256",
          "name": "tokenId",
          "type": "uint256"
        },
        {
          "internalType": "bytes",
          "name": "data",
          "type": "bytes"
        }
      ],
      "name": "safeTransferFrom",
      "outputs": [],
      "stateMutability": "nonpayable",
      "type": "function"
    },
    {
      "inputs": [
        {
          "internalType": "address",
          "name": "operator",
          "type": "address"
        },
        {
          "internalType": "bool",
          "name": "approved",
          "type": "bool"
        }
      ],
      "name": "setApprovalForAll",
      "outputs": [],
      "stateMutability": "nonpayable",
      "type": "function"
    },
    {
      "inputs": [
        {
          "internalType": "address",
          "name": "receiver",
          "type": "address"
        },
        {
          "internalType": "uint96",
          "name": "feeNumerator",
          "type": "uint96"
        }
      ],
      "name": "setDefaultRoyalty",
      "outputs": [],
      "stateMutability": "nonpayable",
      "type": "function"
    },
    {
      "inputs": [
        {
          "internalType": "uint256",
          "name": "startIndex",
          "type": "uint256"
        },
        {
          "internalType": "uint256",
          "name": "endIndex",
          "type": "uint256"
        }
      ],
      "name": "setGiftingIndexes",
      "outputs": [],
      "stateMutability": "nonpayable",
      "type": "function"
    },
    {
      "inputs": [
        {
          "internalType": "uint256",
          "name": "tokenId",
          "type": "uint256"
        },
        {
          "internalType": "address",
          "name": "receiver",
          "type": "address"
        },
        {
          "internalType": "uint96",
          "name": "feeNumerator",
          "type": "uint96"
        }
      ],
      "name": "setTokenRoyalty",
      "outputs": [],
      "stateMutability": "nonpayable",
      "type": "function"
    },
    {
      "inputs": [
        {
          "internalType": "uint256",
          "name": "tokenId",
          "type": "uint256"
        },
        {
          "internalType": "string",
          "name": "_tokenURI",
          "type": "string"
        }
      ],
      "name": "setTokenURI",
      "outputs": [],
      "stateMutability": "nonpayable",
      "type": "function"
    },
    {
      "inputs": [
        {
          "internalType": "uint256",
          "name": "startTokenId",
          "type": "uint256"
        },
        {
          "internalType": "string[]",
          "name": "tokenURIs",
          "type": "string[]"
        }
      ],
      "name": "setTokenURIBatch",
      "outputs": [],
      "stateMutability": "nonpayable",
      "type": "function"
    },
    {
      "inputs": [],
      "name": "startGiftingIndex",
      "outputs": [
        {
          "internalType": "uint256",
          "name": "",
          "type": "uint256"
        }
      ],
      "stateMutability": "view",
      "type": "function"
    },
    {
      "inputs": [
        {
          "internalType": "bytes4",
          "name": "interfaceId",
          "type": "bytes4"
        }
      ],
      "name": "supportsInterface",
      "outputs": [
        {
          "internalType": "bool",
          "name": "",
          "type": "bool"
        }
      ],
      "stateMutability": "view",
      "type": "function"
    },
    {
      "inputs": [],
      "name": "symbol",
      "outputs": [
        {
          "internalType": "string",
          "name": "",
          "type": "string"
        }
      ],
      "stateMutability": "view",
      "type": "function"
    },
    {
      "inputs": [
        {
          "internalType": "uint256",
          "name": "tokenId",
          "type": "uint256"
        }
      ],
      "name": "tokenURI",
      "outputs": [
        {
          "internalType": "string",
          "name": "",
          "type": "string"
        }
      ],
      "stateMutability": "view",
      "type": "function"
    },
    {
      "inputs": [
        {
          "internalType": "address",
          "name": "from",
          "type": "address"
        },
        {
          "internalType": "address",
          "name": "to",
          "type": "address"
        },
        {
          "internalType": "uint256",
          "name": "tokenId",
          "type": "uint256"
        }
      ],
      "name": "transferFrom",
      "outputs": [],
      "stateMutability": "nonpayable",
      "type": "function"
    },
    {
      "inputs": [
        {
          "internalType": "address",
          "name": "newOwner",
          "type": "address"
        }
      ],
      "name": "transferOwnership",
      "outputs": [],
      "stateMutability": "nonpayable",
      "type": "function"
    }
  ],
  "transactionHash": "0xc73dd3b212f10e95d67f755fd3e37fea0c0514b8665993b479290d1beb25d803",
  "args": [
    5706,
    "CanisNFT",
    "CNFT",
    "0x080D834838dc9EE7154a5d13E03073CA2ADd0C92",
    1000,
    1,
    150,
    "http://myuri"
  ],
  "numDeployments": 1,
  "solcInputHash": "3c80c372d00e7f700bb56b906bdd7c26",
  "bytecode": "0x60a06040523480156200001157600080fd5b5060405162002fcd38038062002fcd83398101604081905262000034916200047a565b8651879087906200004d906000906020850190620002c5565b50805162000063906001906020840190620002c5565b505050620000806200007a6200016e60201b60201c565b62000172565b60008811620000d65760405162461bcd60e51b815260206004820152601360248201527f4e46544361707065643a2063617020697320300000000000000000000000000060448201526064015b60405180910390fd5b6080889052600a839055600b8290558051620000fa90600c906020840190620002c5565b50620001128585620001c460201b620010cb1760201c565b7f9c83d62f1383b2fc7751629bae669029d8f5c66a7b0c68d74dee81c03a4aee5a60805188888888600a54600b54600c60405162000158989796959493929190620005ba565b60405180910390a15050505050505050620006d5565b3390565b600980546001600160a01b038381166001600160a01b0319831681179093556040519116919082907f8be0079c531659141344cd1fd0a4f28419497f9722a3daafe3b4186f6b6457e090600090a35050565b6127106001600160601b0382161115620002345760405162461bcd60e51b815260206004820152602a60248201527f455243323938313a20726f79616c7479206665652077696c6c206578636565646044820152692073616c65507269636560b01b6064820152608401620000cd565b6001600160a01b0382166200028c5760405162461bcd60e51b815260206004820152601960248201527f455243323938313a20696e76616c6964207265636569766572000000000000006044820152606401620000cd565b604080518082019091526001600160a01b039092168083526001600160601b039091166020909201829052600160a01b90910217600755565b828054620002d3906200057d565b90600052602060002090601f016020900481019282620002f7576000855562000342565b82601f106200031257805160ff191683800117855562000342565b8280016001018555821562000342579182015b828111156200034257825182559160200191906001019062000325565b506200035092915062000354565b5090565b5b8082111562000350576000815560010162000355565b634e487b7160e01b600052604160045260246000fd5b60005b838110156200039e57818101518382015260200162000384565b83811115620003ae576000848401525b50505050565b600082601f830112620003c657600080fd5b81516001600160401b0380821115620003e357620003e36200036b565b604051601f8301601f19908116603f011681019082821181831017156200040e576200040e6200036b565b816040528381528660208588010111156200042857600080fd5b6200043b84602083016020890162000381565b9695505050505050565b80516001600160a01b03811681146200045d57600080fd5b919050565b80516001600160601b03811681146200045d57600080fd5b600080600080600080600080610100898b0312156200049857600080fd5b885160208a01519098506001600160401b0380821115620004b857600080fd5b620004c68c838d01620003b4565b985060408b0151915080821115620004dd57600080fd5b620004eb8c838d01620003b4565b9750620004fb60608c0162000445565b96506200050b60808c0162000462565b955060a08b0151945060c08b0151935060e08b01519150808211156200053057600080fd5b506200053f8b828c01620003b4565b9150509295985092959890939650565b600081518084526200056981602086016020860162000381565b601f01601f19169290920160200192915050565b600181811c908216806200059257607f821691505b60208210811415620005b457634e487b7160e01b600052602260045260246000fd5b50919050565b60006101008a835260208181850152620005d78285018c6200054f565b91508382036040850152620005ed828b6200054f565b6001600160a01b038a1660608601526001600160601b038916608086015260a0850188905260c0850187905284810360e08601528554909250600090600181811c90828116806200063f57607f831692505b8583108114156200065e57634e487b7160e01b85526022600452602485fd5b8287526020870196508080156200067e57600181146200069057620006bd565b60ff19851688528688019550620006bd565b60008b81526020902060005b85811015620006b75781548a8201529084019088016200069c565b89019650505b50505050508093505050509998505050505050505050565b6080516128b26200071b6000396000818161045a01528181610842015281816109f401528181610b5701528181610cfc01528181610de2015261172501526128b26000f3fe608060405234801561001057600080fd5b50600436106101f05760003560e01c8063715018a61161010f578063c0e24d5e116100a2578063e985e9c511610071578063e985e9c514610419578063ec81b48314610455578063ed7619a91461047c578063f2fde38b1461048557600080fd5b8063c0e24d5e146103e3578063c87b56dd146103eb578063cbfc4bce146103fe578063e8a3d4851461041157600080fd5b8063904f06ce116100de578063904f06ce146103a257806395d89b41146103b5578063a22cb465146103bd578063b88d4fde146103d057600080fd5b8063715018a61461036d5780637ce9c519146103755780638a616bc01461037e5780638da5cb5b1461039157600080fd5b80632a55205a116101875780635944c753116101565780635944c7531461032c5780636352211e1461033f5780636871ee401461035257806370a082311461035a57600080fd5b80632a55205a146102be57806336a6b828146102f057806342842e0e146103115780634e71d92d1461032457600080fd5b8063095ea7b3116101c3578063095ea7b314610272578063162094c4146102855780631733c11a1461029857806323b872dd146102ab57600080fd5b806301ffc9a7146101f557806304634d8d1461021d57806306fdde0314610232578063081812fc14610247575b600080fd5b610208610203366004612217565b610498565b60405190151581526020015b60405180910390f35b61023061022b366004612265565b6104a9565b005b61023a61050c565b60405161021491906122f2565b61025a610255366004612305565b61059e565b6040516001600160a01b039091168152602001610214565b61023061028036600461231e565b6105c5565b610230610293366004612409565b6106fc565b6102306102a6366004612450565b610712565b6102306102b936600461251f565b6107b6565b6102d16102cc366004612560565b61083d565b604080516001600160a01b039093168352602083019190915201610214565b6103036102fe366004612305565b6108cf565b604051908152602001610214565b61023061031f36600461251f565b61090d565b610230610928565b61023061033a366004612582565b6109ea565b61025a61034d366004612305565b610acb565b610303610b30565b6103036103683660046125c0565b610c44565b610230610cde565b610303600b5481565b61023061038c366004612305565b610cf2565b6009546001600160a01b031661025a565b6102306103b0366004612560565b610db1565b61023a610e9b565b6102306103cb3660046125dd565b610eaa565b6102306103de36600461261b565b610eb5565b61023a610f43565b61023a6103f9366004612305565b610fd1565b61023061040c3660046125c0565b610fdc565b61023a61102c565b61020861042736600461269b565b6001600160a01b03918216600090815260056020908152604080832093909416825291909152205460ff1690565b6103037f000000000000000000000000000000000000000000000000000000000000000081565b610303600a5481565b6102306104933660046125c0565b61103b565b60006104a3826111d2565b92915050565b6104b1611210565b6104bb82826110cb565b6040516bffffffffffffffffffffffff821681526001600160a01b038316907fe12d7d5bdb8218a22277dca8f854dd4573a1cea3d3e4808dc567df9eb1c14bf4906020015b60405180910390a25050565b60606000805461051b906126c9565b80601f0160208091040260200160405190810160405280929190818152602001828054610547906126c9565b80156105945780601f1061056957610100808354040283529160200191610594565b820191906000526020600020905b81548152906001019060200180831161057757829003601f168201915b5050505050905090565b60006105a98261126a565b506000908152600460205260409020546001600160a01b031690565b60006105d082610acb565b9050806001600160a01b0316836001600160a01b0316141561065f5760405162461bcd60e51b815260206004820152602160248201527f4552433732313a20617070726f76616c20746f2063757272656e74206f776e6560448201527f720000000000000000000000000000000000000000000000000000000000000060648201526084015b60405180910390fd5b336001600160a01b038216148061067b575061067b8133610427565b6106ed5760405162461bcd60e51b815260206004820152603e60248201527f4552433732313a20617070726f76652063616c6c6572206973206e6f7420746f60448201527f6b656e206f776e6572206e6f7220617070726f76656420666f7220616c6c00006064820152608401610656565b6106f783836112ce565b505050565b610704611210565b61070e8282611349565b5050565b61071a611210565b6101f481511061076c5760405162461bcd60e51b815260206004820152601d60248201527f43414e49534e46543a2042415443482053495a452045584345454445440000006044820152606401610656565b60005b81518110156106f7576107a4610785828561271a565b83838151811061079757610797612732565b6020026020010151611349565b806107ae81612748565b91505061076f565b6107c033826113f2565b6108325760405162461bcd60e51b815260206004820152602e60248201527f4552433732313a2063616c6c6572206973206e6f7420746f6b656e206f776e6560448201527f72206e6f7220617070726f7665640000000000000000000000000000000000006064820152608401610656565b6106f7838383611471565b6000807f00000000000000000000000000000000000000000000000000000000000000008411156108ba5760405162461bcd60e51b815260206004820152602160248201527f43414e49534e46543a20544f4b454e20494420444f4553204e4f5420455849536044820152601560fa1b6064820152608401610656565b6108c4848461164b565b915091509250929050565b60006108d9611210565b60005b828110156108ff576108ec610b30565b50806108f781612748565b9150506108dc565b50600d546104a3565b919050565b6106f783838360405180602001604052806000815250610eb5565b61093133610c44565b156109a45760405162461bcd60e51b815260206004820152602d60248201527f43414e49534e46543a204f574e45522043414e4e4f542048415645204d4f524560448201527f205448414e204f4e45204e4654000000000000000000000000000000000000006064820152608401610656565b60006109af33611706565b60405181815290915033907fd8138f8a3f377c5259ca548e70e4c2de94f129f5a11036a15b69513cba2b426a9060200160405180910390a250565b6109f2611210565b7f0000000000000000000000000000000000000000000000000000000000000000831115610a6c5760405162461bcd60e51b815260206004820152602160248201527f43414e49534e46543a20544f4b454e20494420444f4553204e4f5420455849536044820152601560fa1b6064820152608401610656565b610a77838383611823565b6040516bffffffffffffffffffffffff821681526001600160a01b0383169084907fe361b60b9164428d036a601ec08552e653bfe8c44389b8a4ebfd47281eb8741a906020015b60405180910390a3505050565b6000818152600260205260408120546001600160a01b0316806104a35760405162461bcd60e51b815260206004820152601860248201527f4552433732313a20696e76616c696420746f6b656e20494400000000000000006044820152606401610656565b6000610b3a611210565b610b48600d80546001019055565b6000610b53600d5490565b90507f0000000000000000000000000000000000000000000000000000000000000000811115610bc55760405162461bcd60e51b815260206004820152601760248201527f4e46544341505045443a206361702065786365656465640000000000000000006044820152606401610656565b610c3f306001600160a01b0316638da5cb5b6040518163ffffffff1660e01b815260040160206040518083038186803b158015610c0157600080fd5b505afa158015610c15573d6000803e3d6000fd5b505050506040513d601f19601f82011682018060405250810190610c399190612763565b8261193b565b905090565b60006001600160a01b038216610cc25760405162461bcd60e51b815260206004820152602960248201527f4552433732313a2061646472657373207a65726f206973206e6f74206120766160448201527f6c6964206f776e657200000000000000000000000000000000000000000000006064820152608401610656565b506001600160a01b031660009081526003602052604090205490565b610ce6611210565b610cf06000611955565b565b610cfa611210565b7f0000000000000000000000000000000000000000000000000000000000000000811115610d745760405162461bcd60e51b815260206004820152602160248201527f43414e49534e46543a20544f4b454e20494420444f4553204e4f5420455849536044820152601560fa1b6064820152608401610656565b60008181526008602052604081205560405181907fd4a4110af244550f74d1974351897a9bc1e3a968ab0e84dafdef47733eba6d5590600090a250565b610db9611210565b6000610dc4600d5490565b9050808310158015610dd95750600b54600a54115b8015610e0757507f0000000000000000000000000000000000000000000000000000000000000000600b5411155b610e535760405162461bcd60e51b815260206004820181905260248201527f43414e49534e46543a2057524f4e47204752494654494e4720494e44455845536044820152606401610656565b600a839055600b82905560408051848152602081018490527f2e623480aa4cbd7c590a325ea0d2f6ba03f113824171eec3d6db75837ebbbc57910160405180910390a1505050565b60606001805461051b906126c9565b61070e3383836119b4565b610ebf33836113f2565b610f315760405162461bcd60e51b815260206004820152602e60248201527f4552433732313a2063616c6c6572206973206e6f7420746f6b656e206f776e6560448201527f72206e6f7220617070726f7665640000000000000000000000000000000000006064820152608401610656565b610f3d84848484611a7b565b50505050565b600c8054610f50906126c9565b80601f0160208091040260200160405190810160405280929190818152602001828054610f7c906126c9565b8015610fc95780601f10610f9e57610100808354040283529160200191610fc9565b820191906000526020600020905b815481529060010190602001808311610fac57829003601f168201915b505050505081565b60606104a382611af9565b610fe4611210565b6000610fef82611706565b9050816001600160a01b03167fd27fb549aa167bf858a1420299ea6b1bbbc78233a5e884498b8b603ae4376b018260405161050091815260200190565b6060600c805461051b906126c9565b611043611210565b6001600160a01b0381166110bf5760405162461bcd60e51b815260206004820152602660248201527f4f776e61626c653a206e6577206f776e657220697320746865207a65726f206160448201527f64647265737300000000000000000000000000000000000000000000000000006064820152608401610656565b6110c881611955565b50565b6127106bffffffffffffffffffffffff8216111561113e5760405162461bcd60e51b815260206004820152602a60248201527f455243323938313a20726f79616c7479206665652077696c6c206578636565646044820152692073616c65507269636560b01b6064820152608401610656565b6001600160a01b0382166111945760405162461bcd60e51b815260206004820152601960248201527f455243323938313a20696e76616c6964207265636569766572000000000000006044820152606401610656565b604080518082019091526001600160a01b039092168083526bffffffffffffffffffffffff9091166020909201829052600160a01b90910217600755565b60006001600160e01b031982167f2a55205a0000000000000000000000000000000000000000000000000000000014806104a357506104a382611c02565b6009546001600160a01b03163314610cf05760405162461bcd60e51b815260206004820181905260248201527f4f776e61626c653a2063616c6c6572206973206e6f7420746865206f776e65726044820152606401610656565b6000818152600260205260409020546001600160a01b03166110c85760405162461bcd60e51b815260206004820152601860248201527f4552433732313a20696e76616c696420746f6b656e20494400000000000000006044820152606401610656565b6000818152600460205260409020805473ffffffffffffffffffffffffffffffffffffffff19166001600160a01b038416908117909155819061131082610acb565b6001600160a01b03167f8c5be1e5ebec7d5bd14f71427d1e84f3dd0314c0f7b2291e5b200ac8c7c3b92560405160405180910390a45050565b6000828152600260205260409020546001600160a01b03166113d35760405162461bcd60e51b815260206004820152602e60248201527f45524337323155524953746f726167653a2055524920736574206f66206e6f6e60448201527f6578697374656e7420746f6b656e0000000000000000000000000000000000006064820152608401610656565b600082815260066020908152604090912082516106f792840190612168565b6000806113fe83610acb565b9050806001600160a01b0316846001600160a01b0316148061144557506001600160a01b0380821660009081526005602090815260408083209388168352929052205460ff165b806114695750836001600160a01b031661145e8461059e565b6001600160a01b0316145b949350505050565b826001600160a01b031661148482610acb565b6001600160a01b0316146115005760405162461bcd60e51b815260206004820152602560248201527f4552433732313a207472616e736665722066726f6d20696e636f72726563742060448201527f6f776e65720000000000000000000000000000000000000000000000000000006064820152608401610656565b6001600160a01b03821661157b5760405162461bcd60e51b8152602060048201526024808201527f4552433732313a207472616e7366657220746f20746865207a65726f2061646460448201527f72657373000000000000000000000000000000000000000000000000000000006064820152608401610656565b6115866000826112ce565b6001600160a01b03831660009081526003602052604081208054600192906115af908490612780565b90915550506001600160a01b03821660009081526003602052604081208054600192906115dd90849061271a565b9091555050600081815260026020526040808220805473ffffffffffffffffffffffffffffffffffffffff19166001600160a01b0386811691821790925591518493918716917fddf252ad1be2c89b69c2b068fc378daa952ba7f163c4a11628f55a4df523b3ef91a4505050565b60008281526008602090815260408083208151808301909252546001600160a01b038116808352600160a01b9091046bffffffffffffffffffffffff169282019290925282916116ca5750604080518082019091526007546001600160a01b0381168252600160a01b90046bffffffffffffffffffffffff1660208201525b6020810151600090612710906116ee906bffffffffffffffffffffffff1687612797565b6116f891906127cc565b915196919550909350505050565b6000611716600d80546001019055565b6000611721600d5490565b90507f00000000000000000000000000000000000000000000000000000000000000008111156117935760405162461bcd60e51b815260206004820152601760248201527f4e46544341505045443a206361702065786365656465640000000000000000006044820152606401610656565b600a5481101580156117a75750600b548111155b6118195760405162461bcd60e51b815260206004820152602660248201527f43414e49534e46543a2043414e4e4f54204d494e54204e4f4e2047494654414260448201527f4c45204e465400000000000000000000000000000000000000000000000000006064820152608401610656565b6104a3838261193b565b6127106bffffffffffffffffffffffff821611156118965760405162461bcd60e51b815260206004820152602a60248201527f455243323938313a20726f79616c7479206665652077696c6c206578636565646044820152692073616c65507269636560b01b6064820152608401610656565b6001600160a01b0382166118ec5760405162461bcd60e51b815260206004820152601b60248201527f455243323938313a20496e76616c696420706172616d657465727300000000006044820152606401610656565b6040805180820182526001600160a01b0393841681526bffffffffffffffffffffffff92831660208083019182526000968752600890529190942093519051909116600160a01b029116179055565b61070e828260405180602001604052806000815250611c9d565b600980546001600160a01b0383811673ffffffffffffffffffffffffffffffffffffffff19831681179093556040519116919082907f8be0079c531659141344cd1fd0a4f28419497f9722a3daafe3b4186f6b6457e090600090a35050565b816001600160a01b0316836001600160a01b03161415611a165760405162461bcd60e51b815260206004820152601960248201527f4552433732313a20617070726f766520746f2063616c6c6572000000000000006044820152606401610656565b6001600160a01b03838116600081815260056020908152604080832094871680845294825291829020805460ff191686151590811790915591519182527f17307eab39ab6107e8899845ad3d59bd9653f200f220920489ca2b5937696c319101610abe565b611a86848484611471565b611a9284848484611d1b565b610f3d5760405162461bcd60e51b815260206004820152603260248201527f4552433732313a207472616e7366657220746f206e6f6e20455243373231526560448201527131b2b4bb32b91034b6b83632b6b2b73a32b960711b6064820152608401610656565b6060611b048261126a565b60008281526006602052604081208054611b1d906126c9565b80601f0160208091040260200160405190810160405280929190818152602001828054611b49906126c9565b8015611b965780601f10611b6b57610100808354040283529160200191611b96565b820191906000526020600020905b815481529060010190602001808311611b7957829003601f168201915b505050505090506000611bb460408051602081019091526000815290565b9050805160001415611bc7575092915050565b815115611bf9578082604051602001611be19291906127e0565b60405160208183030381529060405292505050919050565b61146984611e73565b60006001600160e01b031982167f80ac58cd000000000000000000000000000000000000000000000000000000001480611c6557506001600160e01b031982167f5b5e139f00000000000000000000000000000000000000000000000000000000145b806104a357507f01ffc9a7000000000000000000000000000000000000000000000000000000006001600160e01b03198316146104a3565b611ca78383611ee7565b611cb46000848484611d1b565b6106f75760405162461bcd60e51b815260206004820152603260248201527f4552433732313a207472616e7366657220746f206e6f6e20455243373231526560448201527131b2b4bb32b91034b6b83632b6b2b73a32b960711b6064820152608401610656565b60006001600160a01b0384163b15611e6857604051630a85bd0160e11b81526001600160a01b0385169063150b7a0290611d5f90339089908890889060040161280f565b602060405180830381600087803b158015611d7957600080fd5b505af1925050508015611da9575060408051601f3d908101601f19168201909252611da69181019061284b565b60015b611e4e573d808015611dd7576040519150601f19603f3d011682016040523d82523d6000602084013e611ddc565b606091505b508051611e465760405162461bcd60e51b815260206004820152603260248201527f4552433732313a207472616e7366657220746f206e6f6e20455243373231526560448201527131b2b4bb32b91034b6b83632b6b2b73a32b960711b6064820152608401610656565b805181602001fd5b6001600160e01b031916630a85bd0160e11b149050611469565b506001949350505050565b6060611e7e8261126a565b6000611e9560408051602081019091526000815290565b90506000815111611eb55760405180602001604052806000815250611ee0565b80611ebf84612036565b604051602001611ed09291906127e0565b6040516020818303038152906040525b9392505050565b6001600160a01b038216611f3d5760405162461bcd60e51b815260206004820181905260248201527f4552433732313a206d696e7420746f20746865207a65726f20616464726573736044820152606401610656565b6000818152600260205260409020546001600160a01b031615611fa25760405162461bcd60e51b815260206004820152601c60248201527f4552433732313a20746f6b656e20616c7265616479206d696e746564000000006044820152606401610656565b6001600160a01b0382166000908152600360205260408120805460019290611fcb90849061271a565b9091555050600081815260026020526040808220805473ffffffffffffffffffffffffffffffffffffffff19166001600160a01b03861690811790915590518392907fddf252ad1be2c89b69c2b068fc378daa952ba7f163c4a11628f55a4df523b3ef908290a45050565b60608161207657505060408051808201909152600181527f3000000000000000000000000000000000000000000000000000000000000000602082015290565b8160005b81156120a0578061208a81612748565b91506120999050600a836127cc565b915061207a565b60008167ffffffffffffffff8111156120bb576120bb61234a565b6040519080825280601f01601f1916602001820160405280156120e5576020820181803683370190505b5090505b8415611469576120fa600183612780565b9150612107600a86612868565b61211290603061271a565b60f81b81838151811061212757612127612732565b60200101907effffffffffffffffffffffffffffffffffffffffffffffffffffffffffffff1916908160001a905350612161600a866127cc565b94506120e9565b828054612174906126c9565b90600052602060002090601f01602090048101928261219657600085556121dc565b82601f106121af57805160ff19168380011785556121dc565b828001600101855582156121dc579182015b828111156121dc5782518255916020019190600101906121c1565b506121e89291506121ec565b5090565b5b808211156121e857600081556001016121ed565b6001600160e01b0319811681146110c857600080fd5b60006020828403121561222957600080fd5b8135611ee081612201565b6001600160a01b03811681146110c857600080fd5b80356bffffffffffffffffffffffff8116811461090857600080fd5b6000806040838503121561227857600080fd5b823561228381612234565b915061229160208401612249565b90509250929050565b60005b838110156122b557818101518382015260200161229d565b83811115610f3d5750506000910152565b600081518084526122de81602086016020860161229a565b601f01601f19169290920160200192915050565b602081526000611ee060208301846122c6565b60006020828403121561231757600080fd5b5035919050565b6000806040838503121561233157600080fd5b823561233c81612234565b946020939093013593505050565b634e487b7160e01b600052604160045260246000fd5b604051601f8201601f1916810167ffffffffffffffff811182821017156123895761238961234a565b604052919050565b600067ffffffffffffffff8311156123ab576123ab61234a565b6123be601f8401601f1916602001612360565b90508281528383830111156123d257600080fd5b828260208301376000602084830101529392505050565b600082601f8301126123fa57600080fd5b611ee083833560208501612391565b6000806040838503121561241c57600080fd5b82359150602083013567ffffffffffffffff81111561243a57600080fd5b612446858286016123e9565b9150509250929050565b6000806040838503121561246357600080fd5b8235915060208084013567ffffffffffffffff8082111561248357600080fd5b818601915086601f83011261249757600080fd5b8135818111156124a9576124a961234a565b8060051b6124b8858201612360565b918252838101850191858101908a8411156124d257600080fd5b86860192505b8383101561250e578235858111156124f05760008081fd5b6124fe8c89838a01016123e9565b83525091860191908601906124d8565b809750505050505050509250929050565b60008060006060848603121561253457600080fd5b833561253f81612234565b9250602084013561254f81612234565b929592945050506040919091013590565b6000806040838503121561257357600080fd5b50508035926020909101359150565b60008060006060848603121561259757600080fd5b8335925060208401356125a981612234565b91506125b760408501612249565b90509250925092565b6000602082840312156125d257600080fd5b8135611ee081612234565b600080604083850312156125f057600080fd5b82356125fb81612234565b91506020830135801515811461261057600080fd5b809150509250929050565b6000806000806080858703121561263157600080fd5b843561263c81612234565b9350602085013561264c81612234565b925060408501359150606085013567ffffffffffffffff81111561266f57600080fd5b8501601f8101871361268057600080fd5b61268f87823560208401612391565b91505092959194509250565b600080604083850312156126ae57600080fd5b82356126b981612234565b9150602083013561261081612234565b600181811c908216806126dd57607f821691505b602082108114156126fe57634e487b7160e01b600052602260045260246000fd5b50919050565b634e487b7160e01b600052601160045260246000fd5b6000821982111561272d5761272d612704565b500190565b634e487b7160e01b600052603260045260246000fd5b600060001982141561275c5761275c612704565b5060010190565b60006020828403121561277557600080fd5b8151611ee081612234565b60008282101561279257612792612704565b500390565b60008160001904831182151516156127b1576127b1612704565b500290565b634e487b7160e01b600052601260045260246000fd5b6000826127db576127db6127b6565b500490565b600083516127f281846020880161229a565b83519083019061280681836020880161229a565b01949350505050565b60006001600160a01b0380871683528086166020840152508360408301526080606083015261284160808301846122c6565b9695505050505050565b60006020828403121561285d57600080fd5b8151611ee081612201565b600082612877576128776127b6565b50069056fea26469706673582212206426f58c38b93bd5e9de5578a7dbc049d581855e7be6688e66566ac9204d368764736f6c63430008090033",
  "devdoc": {
    "kind": "dev",
    "methods": {
      "approve(address,uint256)": {
        "details": "See {IERC721-approve}."
      },
      "balanceOf(address)": {
        "details": "See {IERC721-balanceOf}."
      },
      "getApproved(uint256)": {
        "details": "See {IERC721-getApproved}."
      },
      "isApprovedForAll(address,address)": {
        "details": "See {IERC721-isApprovedForAll}."
      },
      "name()": {
        "details": "See {IERC721Metadata-name}."
      },
      "owner()": {
        "details": "Returns the address of the current owner."
      },
      "ownerOf(uint256)": {
        "details": "See {IERC721-ownerOf}."
      },
      "renounceOwnership()": {
        "details": "Leaves the contract without owner. It will not be possible to call `onlyOwner` functions anymore. Can only be called by the current owner. NOTE: Renouncing ownership will leave the contract without an owner, thereby removing any functionality that is only available to the owner."
      },
      "royaltyInfo(uint256,uint256)": {
        "details": "Returns how much royalty is owed and to whom, based on a sale price that may be denominated in any unit of exchange. The royalty amount is denominated and should be paid in that same unit of exchange."
      },
      "safeTransferFrom(address,address,uint256)": {
        "details": "See {IERC721-safeTransferFrom}."
      },
      "safeTransferFrom(address,address,uint256,bytes)": {
        "details": "See {IERC721-safeTransferFrom}."
      },
      "setApprovalForAll(address,bool)": {
        "details": "See {IERC721-setApprovalForAll}."
      },
      "symbol()": {
        "details": "See {IERC721Metadata-symbol}."
      },
      "tokenURI(uint256)": {
        "details": "See {IERC721Metadata-tokenURI}."
      },
      "transferFrom(address,address,uint256)": {
        "details": "See {IERC721-transferFrom}."
      },
      "transferOwnership(address)": {
        "details": "Transfers ownership of the contract to a new account (`newOwner`). Can only be called by the current owner."
      }
    },
    "version": 1
  },
  "userdoc": {
    "kind": "user",
    "methods": {},
    "version": 1
  },
  "storageLayout": {
    "storage": [
      {
        "astId": 157,
        "contract": "contracts/CanisNFT.sol:CanisNFT",
        "label": "_name",
        "offset": 0,
        "slot": "0",
        "type": "t_string_storage"
      },
      {
        "astId": 159,
        "contract": "contracts/CanisNFT.sol:CanisNFT",
        "label": "_symbol",
        "offset": 0,
        "slot": "1",
        "type": "t_string_storage"
      },
      {
        "astId": 163,
        "contract": "contracts/CanisNFT.sol:CanisNFT",
        "label": "_owners",
        "offset": 0,
        "slot": "2",
        "type": "t_mapping(t_uint256,t_address)"
      },
      {
        "astId": 167,
        "contract": "contracts/CanisNFT.sol:CanisNFT",
        "label": "_balances",
        "offset": 0,
        "slot": "3",
        "type": "t_mapping(t_address,t_uint256)"
      },
      {
        "astId": 171,
        "contract": "contracts/CanisNFT.sol:CanisNFT",
        "label": "_tokenApprovals",
        "offset": 0,
        "slot": "4",
        "type": "t_mapping(t_uint256,t_address)"
      },
      {
        "astId": 177,
        "contract": "contracts/CanisNFT.sol:CanisNFT",
        "label": "_operatorApprovals",
        "offset": 0,
        "slot": "5",
        "type": "t_mapping(t_address,t_mapping(t_address,t_bool))"
      },
      {
        "astId": 1145,
        "contract": "contracts/CanisNFT.sol:CanisNFT",
        "label": "_tokenURIs",
        "offset": 0,
        "slot": "6",
        "type": "t_mapping(t_uint256,t_string_storage)"
      },
      {
        "astId": 1301,
        "contract": "contracts/CanisNFT.sol:CanisNFT",
        "label": "_defaultRoyaltyInfo",
        "offset": 0,
        "slot": "7",
        "type": "t_struct(RoyaltyInfo)1298_storage"
      },
      {
        "astId": 1306,
        "contract": "contracts/CanisNFT.sol:CanisNFT",
        "label": "_tokenRoyaltyInfo",
        "offset": 0,
        "slot": "8",
        "type": "t_mapping(t_uint256,t_struct(RoyaltyInfo)1298_storage)"
      },
      {
        "astId": 7,
        "contract": "contracts/CanisNFT.sol:CanisNFT",
        "label": "_owner",
        "offset": 0,
        "slot": "9",
        "type": "t_address"
      },
      {
        "astId": 2152,
        "contract": "contracts/CanisNFT.sol:CanisNFT",
        "label": "startGiftingIndex",
        "offset": 0,
        "slot": "10",
        "type": "t_uint256"
      },
      {
        "astId": 2154,
        "contract": "contracts/CanisNFT.sol:CanisNFT",
        "label": "endGiftingIndex",
        "offset": 0,
        "slot": "11",
        "type": "t_uint256"
      },
      {
        "astId": 2156,
        "contract": "contracts/CanisNFT.sol:CanisNFT",
        "label": "contractUri",
        "offset": 0,
        "slot": "12",
        "type": "t_string_storage"
      },
      {
        "astId": 2163,
        "contract": "contracts/CanisNFT.sol:CanisNFT",
        "label": "_tokenIdCounter",
        "offset": 0,
        "slot": "13",
        "type": "t_struct(Counter)1805_storage"
      }
    ],
    "types": {
      "t_address": {
        "encoding": "inplace",
        "label": "address",
        "numberOfBytes": "20"
      },
      "t_bool": {
        "encoding": "inplace",
        "label": "bool",
        "numberOfBytes": "1"
      },
      "t_mapping(t_address,t_bool)": {
        "encoding": "mapping",
        "key": "t_address",
        "label": "mapping(address => bool)",
        "numberOfBytes": "32",
        "value": "t_bool"
      },
      "t_mapping(t_address,t_mapping(t_address,t_bool))": {
        "encoding": "mapping",
        "key": "t_address",
        "label": "mapping(address => mapping(address => bool))",
        "numberOfBytes": "32",
        "value": "t_mapping(t_address,t_bool)"
      },
      "t_mapping(t_address,t_uint256)": {
        "encoding": "mapping",
        "key": "t_address",
        "label": "mapping(address => uint256)",
        "numberOfBytes": "32",
        "value": "t_uint256"
      },
      "t_mapping(t_uint256,t_address)": {
        "encoding": "mapping",
        "key": "t_uint256",
        "label": "mapping(uint256 => address)",
        "numberOfBytes": "32",
        "value": "t_address"
      },
      "t_mapping(t_uint256,t_string_storage)": {
        "encoding": "mapping",
        "key": "t_uint256",
        "label": "mapping(uint256 => string)",
        "numberOfBytes": "32",
        "value": "t_string_storage"
      },
      "t_mapping(t_uint256,t_struct(RoyaltyInfo)1298_storage)": {
        "encoding": "mapping",
        "key": "t_uint256",
        "label": "mapping(uint256 => struct ERC2981.RoyaltyInfo)",
        "numberOfBytes": "32",
        "value": "t_struct(RoyaltyInfo)1298_storage"
      },
      "t_string_storage": {
        "encoding": "bytes",
        "label": "string",
        "numberOfBytes": "32"
      },
      "t_struct(Counter)1805_storage": {
        "encoding": "inplace",
        "label": "struct Counters.Counter",
        "members": [
          {
            "astId": 1804,
            "contract": "contracts/CanisNFT.sol:CanisNFT",
            "label": "_value",
            "offset": 0,
            "slot": "0",
            "type": "t_uint256"
          }
        ],
        "numberOfBytes": "32"
      },
      "t_struct(RoyaltyInfo)1298_storage": {
        "encoding": "inplace",
        "label": "struct ERC2981.RoyaltyInfo",
        "members": [
          {
            "astId": 1295,
            "contract": "contracts/CanisNFT.sol:CanisNFT",
            "label": "receiver",
            "offset": 0,
            "slot": "0",
            "type": "t_address"
          },
          {
            "astId": 1297,
            "contract": "contracts/CanisNFT.sol:CanisNFT",
            "label": "royaltyFraction",
            "offset": 20,
            "slot": "0",
            "type": "t_uint96"
          }
        ],
        "numberOfBytes": "32"
      },
      "t_uint256": {
        "encoding": "inplace",
        "label": "uint256",
        "numberOfBytes": "32"
      },
      "t_uint96": {
        "encoding": "inplace",
        "label": "uint96",
        "numberOfBytes": "12"
      }
    }
  }
}