{
  "address": "0x87AfcCCc889e329f296F4310FDF62b45a4e44f4b",
  "abi": [
    {
      "inputs": [
        {
          "internalType": "address",
          "name": "_uniswapRouter",
          "type": "address"
        },
        {
          "internalType": "address",
          "name": "_ubiToken",
          "type": "address"
        },
        {
          "internalType": "uint256",
          "name": "_swapDeadline",
          "type": "uint256"
        }
      ],
      "stateMutability": "nonpayable",
      "type": "constructor"
    },
    {
      "anonymous": false,
      "inputs": [
        {
          "indexed": true,
          "internalType": "address",
          "name": "uniswapRouter",
          "type": "address"
        },
        {
          "indexed": true,
          "internalType": "address",
          "name": "ubiToken",
          "type": "address"
        },
        {
          "indexed": false,
          "internalType": "uint256",
          "name": "swapDeadline",
          "type": "uint256"
        }
      ],
      "name": "Initialized",
      "type": "event"
    },
    {
      "anonymous": false,
      "inputs": [
        {
          "indexed": true,
          "internalType": "address",
          "name": "previousOwner",
          "type": "address"
        },
        {
          "indexed": true,
          "internalType": "address",
          "name": "newOwner",
          "type": "address"
        }
      ],
      "name": "OwnershipTransferred",
      "type": "event"
    },
    {
      "anonymous": false,
      "inputs": [
        {
          "indexed": true,
          "internalType": "address",
          "name": "sender",
          "type": "address"
        },
        {
          "indexed": false,
          "internalType": "uint256",
          "name": "nativeAmount",
          "type": "uint256"
        },
        {
          "indexed": false,
          "internalType": "uint256",
          "name": "UBIBurnedAmount",
          "type": "uint256"
        }
      ],
      "name": "SwapAndBurn",
      "type": "event"
    },
    {
      "anonymous": false,
      "inputs": [
        {
          "indexed": false,
          "internalType": "uint256",
          "name": "oldDeadline",
          "type": "uint256"
        },
        {
          "indexed": false,
          "internalType": "uint256",
          "name": "newDeadline",
          "type": "uint256"
        }
      ],
      "name": "SwapDeadLineUpdated",
      "type": "event"
    },
    {
      "anonymous": false,
      "inputs": [
        {
          "indexed": false,
          "internalType": "uint256",
          "name": "oldAmount",
          "type": "uint256"
        },
        {
          "indexed": false,
          "internalType": "uint256",
          "name": "newAmount",
          "type": "uint256"
        }
      ],
      "name": "UniswapAllowanceUpdated",
      "type": "event"
    },
    {
      "anonymous": false,
      "inputs": [
        {
          "indexed": false,
          "internalType": "uint256",
          "name": "amount",
          "type": "uint256"
        }
      ],
      "name": "UniswapApproved",
      "type": "event"
    },
    {
      "inputs": [],
      "name": "UBI",
      "outputs": [
        {
          "internalType": "address",
          "name": "",
          "type": "address"
        }
      ],
      "stateMutability": "view",
      "type": "function"
    },
    {
      "inputs": [],
      "name": "Uniswap",
      "outputs": [
        {
          "internalType": "address",
          "name": "",
          "type": "address"
        }
      ],
      "stateMutability": "view",
      "type": "function"
    },
    {
      "inputs": [
        {
          "internalType": "uint256",
          "name": "amount",
          "type": "uint256"
        }
      ],
      "name": "approveUniSwap",
      "outputs": [],
      "stateMutability": "nonpayable",
      "type": "function"
    },
    {
      "inputs": [
        {
          "internalType": "uint256",
          "name": "amount",
          "type": "uint256"
        }
      ],
      "name": "decreaseUniswapAllowance",
      "outputs": [],
      "stateMutability": "nonpayable",
      "type": "function"
    },
    {
      "inputs": [
        {
          "internalType": "uint256",
          "name": "amount",
          "type": "uint256"
        }
      ],
      "name": "increaseUniswapAllowance",
      "outputs": [],
      "stateMutability": "nonpayable",
      "type": "function"
    },
    {
      "inputs": [],
      "name": "owner",
      "outputs": [
        {
          "internalType": "address",
          "name": "",
          "type": "address"
        }
      ],
      "stateMutability": "view",
      "type": "function"
    },
    {
      "inputs": [],
      "name": "receiveSwapAndBurn",
      "outputs": [
        {
          "internalType": "uint256[]",
          "name": "amounts",
          "type": "uint256[]"
        }
      ],
      "stateMutability": "payable",
      "type": "function"
    },
    {
      "inputs": [],
      "name": "renounceOwnership",
      "outputs": [],
      "stateMutability": "nonpayable",
      "type": "function"
    },
    {
      "inputs": [
        {
          "internalType": "uint256",
          "name": "newDeadline",
          "type": "uint256"
        }
      ],
      "name": "setSwapDeadline",
      "outputs": [],
      "stateMutability": "nonpayable",
      "type": "function"
    },
    {
      "inputs": [],
      "name": "swapDeadline",
      "outputs": [
        {
          "internalType": "uint256",
          "name": "",
          "type": "uint256"
        }
      ],
      "stateMutability": "view",
      "type": "function"
    },
    {
      "inputs": [
        {
          "internalType": "address",
          "name": "newOwner",
          "type": "address"
        }
      ],
      "name": "transferOwnership",
      "outputs": [],
      "stateMutability": "nonpayable",
      "type": "function"
    },
    {
      "stateMutability": "payable",
      "type": "receive"
    }
  ],
  "transactionHash": "0xc50c5ef891bf0dad888eb815b5216e6a0191c9485e3ab2bde8b64b20d363fab4",
  "args": [
    "0x080D834838dc9EE7154a5d13E03073CA2ADd0C92",
    "0x080D834838dc9EE7154a5d13E03073CA2ADd0C92",
    100
  ],
  "numDeployments": 1,
  "solcInputHash": "bdc2b26ff1320110533f83ca8af04414",
  "bytecode": "0x60a06040523480156200001157600080fd5b506040516200155b3803806200155b8339810160408190526200003491620001e8565b6200003f336200017b565b60408051808201909152601f81527f556e697377617020616464726573732063616e206e6f74206265206e756c6c0060208201528390806001600160a01b038316620000a95760405162461bcd60e51b8152600401620000a0919062000229565b60405180910390fd5b5060408051808201909152601b81527f55424920616464726573732063616e206e6f74206265206e756c6c000000000060208201528490806001600160a01b0383166200010b5760405162461bcd60e51b8152600401620000a0919062000229565b50600180546001600160a01b0319166001600160a01b03898116918217909255908716608081905260028790556040518781529091907f10f27652c1015195ca7e6bc9b4c724cbf18e91c42117d92124703a3f49bb240f9060200160405180910390a35050505050505062000281565b600080546001600160a01b038381166001600160a01b0319831681178455604051919092169283917f8be0079c531659141344cd1fd0a4f28419497f9722a3daafe3b4186f6b6457e09190a35050565b80516001600160a01b0381168114620001e357600080fd5b919050565b600080600060608486031215620001fe57600080fd5b6200020984620001cb565b92506200021960208501620001cb565b9150604084015190509250925092565b600060208083528351808285015260005b8181101562000258578581018301518582016040015282016200023a565b818111156200026b576000604083870101525b50601f01601f1916929092016040019392505050565b608051611278620002e3600039600081816101330152818161032501528181610387015281816104fb015281816105d50152818161079d0152818161085c015281816109f401528181610ab301528181610bf00152610e0b01526112786000f3fe6080604052600436106100c05760003560e01c806393ad9f1711610074578063be87f91f1161004e578063be87f91f146101ef578063e076fc3d1461020f578063f2fde38b1461022f57600080fd5b806393ad9f171461018b578063942dbff4146101ab5780639646384f146101cf57600080fd5b8063715018a6116100a5578063715018a61461010c5780637e613d59146101215780638da5cb5b1461016d57600080fd5b80633cc8ab3c146100cc5780635022c4d9146100ea57600080fd5b366100c757005b600080fd5b6100d461024f565b6040516100e19190610fb2565b60405180910390f35b3480156100f657600080fd5b5061010a610105366004610ff6565b61076a565b005b34801561011857600080fd5b5061010a610967565b34801561012d57600080fd5b506101557f000000000000000000000000000000000000000000000000000000000000000081565b6040516001600160a01b0390911681526020016100e1565b34801561017957600080fd5b506000546001600160a01b0316610155565b34801561019757600080fd5b5061010a6101a6366004610ff6565b61097b565b3480156101b757600080fd5b506101c160025481565b6040519081526020016100e1565b3480156101db57600080fd5b50600154610155906001600160a01b031681565b3480156101fb57600080fd5b5061010a61020a366004610ff6565b6109c1565b34801561021b57600080fd5b5061010a61022a366004610ff6565b610ba6565b34801561023b57600080fd5b5061010a61024a366004611024565b610ca5565b604080516002808252606080830184529260009291906020830190803683375050600154604080516315ab88c960e31b815290519394506001600160a01b039091169263ad5c464892506004808301926020929190829003018186803b1580156102b857600080fd5b505afa1580156102cc573d6000803e3d6000fd5b505050506040513d601f19601f820116820180604052508101906102f09190611057565b8160008151811061030357610303611074565b60200260200101906001600160a01b031690816001600160a01b0316815250507f00000000000000000000000000000000000000000000000000000000000000008160018151811061035757610357611074565b6001600160a01b0392831660209182029290920101526040516370a0823160e01b815230600482015247916000917f0000000000000000000000000000000000000000000000000000000000000000909116906370a082319060240160206040518083038186803b1580156103cb57600080fd5b505afa1580156103df573d6000803e3d6000fd5b505050506040513d601f19601f82011682018060405250810190610403919061108a565b9050600061041034610d35565b60008151811061042257610422611074565b60209081029190910101516001546002546040517ffb3bdb410000000000000000000000000000000000000000000000000000000081529293506001600160a01b039091169163fb3bdb419134916104829186918a9130916004016110e7565b6000604051808303818588803b15801561049b57600080fd5b505af11580156104af573d6000803e3d6000fd5b50505050506040513d6000823e601f3d908101601f191682016040526104d8919081019061111c565b6040516370a0823160e01b81523060048201529095506000906001600160a01b037f000000000000000000000000000000000000000000000000000000000000000016906370a082319060240160206040518083038186803b15801561053d57600080fd5b505afa158015610551573d6000803e3d6000fd5b505050506040513d601f19601f82011682018060405250810190610575919061108a565b90508281116105cb5760405162461bcd60e51b815260206004820152601660248201527f43616e6973537761703a2053574150204641494c45440000000000000000000060448201526064015b60405180910390fd5b6001600160a01b037f0000000000000000000000000000000000000000000000000000000000000000166342966c6861060485846111da565b6040518263ffffffff1660e01b815260040161062291815260200190565b600060405180830381600087803b15801561063c57600080fd5b505af1158015610650573d6000803e3d6000fd5b5060009250339150610664905086346111da565b604051600081818185875af1925050503d80600081146106a0576040519150601f19603f3d011682016040523d82523d6000602084013e6106a5565b606091505b505090508061071c5760405162461bcd60e51b815260206004820152602360248201527f4661696c656420746f2073656e64204e61746976652063757272656e6379206460448201527f757374000000000000000000000000000000000000000000000000000000000060648201526084016105c2565b337f5380c1db0d3a91b7820df3c466734766b2113aa6843e44d101f5bf2d5d87f0e23461074987866111da565b6040805192835260208301919091520160405180910390a250505050505090565b610772610ef0565b600154604051636eb1769f60e11b81523060048201526001600160a01b0391821660248201526000917f0000000000000000000000000000000000000000000000000000000000000000169063dd62ed3e9060440160206040518083038186803b1580156107df57600080fd5b505afa1580156107f3573d6000803e3d6000fd5b505050506040513d601f19601f82011682018060405250810190610817919061108a565b6001546040517f395093510000000000000000000000000000000000000000000000000000000081526001600160a01b039182166004820152602481018590529192507f00000000000000000000000000000000000000000000000000000000000000001690633950935190604401602060405180830381600087803b1580156108a057600080fd5b505af11580156108b4573d6000803e3d6000fd5b505050506040513d601f19601f820116820180604052508101906108d891906111ff565b15156001146109295760405162461bcd60e51b815260206004820181905260248201527f55424920494e435245415320414c4c4f57414e43452057454e542057524f4e4760448201526064016105c2565b60408051828152602081018490527f9e15a98c1fe458812edb75a0ceea7b3d27296ef825fc91dc24495c3f6709247c91015b60405180910390a15050565b61096f610ef0565b6109796000610f4a565b565b610983610ef0565b600280549082905560408051828152602081018490527f532ce437c3189629da79e92f0fbd19ab12de0fbc3a7f467c30da873fd4c9854b910161095b565b6109c9610ef0565b600154604051636eb1769f60e11b81523060048201526001600160a01b0391821660248201526000917f0000000000000000000000000000000000000000000000000000000000000000169063dd62ed3e9060440160206040518083038186803b158015610a3657600080fd5b505afa158015610a4a573d6000803e3d6000fd5b505050506040513d601f19601f82011682018060405250810190610a6e919061108a565b6001546040517fa457c2d70000000000000000000000000000000000000000000000000000000081526001600160a01b039182166004820152602481018590529192507f0000000000000000000000000000000000000000000000000000000000000000169063a457c2d790604401602060405180830381600087803b158015610af757600080fd5b505af1158015610b0b573d6000803e3d6000fd5b505050506040513d601f19601f82011682018060405250810190610b2f91906111ff565b15156001146109295760405162461bcd60e51b815260206004820152602160248201527f55424920444543524541534520414c4c4f57414e43452057454e542057524f4e60448201527f470000000000000000000000000000000000000000000000000000000000000060648201526084016105c2565b610bae610ef0565b6001546040517f095ea7b30000000000000000000000000000000000000000000000000000000081526001600160a01b039182166004820152602481018390527f00000000000000000000000000000000000000000000000000000000000000009091169063095ea7b390604401602060405180830381600087803b158015610c3657600080fd5b505af1158015610c4a573d6000803e3d6000fd5b505050506040513d601f19601f82011682018060405250810190610c6e91906111ff565b506040518181527fe5d0826e7d8fabb33205920ffe08669158a1be0918e79b1df1eac3907e9f4da59060200160405180910390a150565b610cad610ef0565b6001600160a01b038116610d295760405162461bcd60e51b815260206004820152602660248201527f4f776e61626c653a206e6577206f776e657220697320746865207a65726f206160448201527f646472657373000000000000000000000000000000000000000000000000000060648201526084016105c2565b610d3281610f4a565b50565b604080516002808252606080830184529260009291906020830190803683375050600154604080516315ab88c960e31b815290519394506001600160a01b039091169263ad5c464892506004808301926020929190829003018186803b158015610d9e57600080fd5b505afa158015610db2573d6000803e3d6000fd5b505050506040513d601f19601f82011682018060405250810190610dd69190611057565b81600081518110610de957610de9611074565b60200260200101906001600160a01b031690816001600160a01b0316815250507f000000000000000000000000000000000000000000000000000000000000000081600181518110610e3d57610e3d611074565b6001600160a01b0392831660209182029290920101526001546040517fd06ca61f00000000000000000000000000000000000000000000000000000000815291169063d06ca61f90610e959086908590600401611221565b60006040518083038186803b158015610ead57600080fd5b505afa158015610ec1573d6000803e3d6000fd5b505050506040513d6000823e601f3d908101601f19168201604052610ee9919081019061111c565b9392505050565b6000546001600160a01b031633146109795760405162461bcd60e51b815260206004820181905260248201527f4f776e61626c653a2063616c6c6572206973206e6f7420746865206f776e657260448201526064016105c2565b600080546001600160a01b038381167fffffffffffffffffffffffff0000000000000000000000000000000000000000831681178455604051919092169283917f8be0079c531659141344cd1fd0a4f28419497f9722a3daafe3b4186f6b6457e09190a35050565b6020808252825182820181905260009190848201906040850190845b81811015610fea57835183529284019291840191600101610fce565b50909695505050505050565b60006020828403121561100857600080fd5b5035919050565b6001600160a01b0381168114610d3257600080fd5b60006020828403121561103657600080fd5b8135610ee98161100f565b634e487b7160e01b600052604160045260246000fd5b60006020828403121561106957600080fd5b8151610ee98161100f565b634e487b7160e01b600052603260045260246000fd5b60006020828403121561109c57600080fd5b5051919050565b600081518084526020808501945080840160005b838110156110dc5781516001600160a01b0316875295820195908201906001016110b7565b509495945050505050565b84815260806020820152600061110060808301866110a3565b6001600160a01b03949094166040830152506060015292915050565b6000602080838503121561112f57600080fd5b825167ffffffffffffffff8082111561114757600080fd5b818501915085601f83011261115b57600080fd5b81518181111561116d5761116d611041565b8060051b604051601f19603f8301168101818110858211171561119257611192611041565b6040529182528482019250838101850191888311156111b057600080fd5b938501935b828510156111ce578451845293850193928501926111b5565b98975050505050505050565b6000828210156111fa57634e487b7160e01b600052601160045260246000fd5b500390565b60006020828403121561121157600080fd5b81518015158114610ee957600080fd5b82815260406020820152600061123a60408301846110a3565b94935050505056fea26469706673582212200d837891029b8f566a13aadeb7816765b5da498760e1467ff543eefc6c066dea64736f6c63430008090033",
  "devdoc": {
    "kind": "dev",
    "methods": {
      "owner()": {
        "details": "Returns the address of the current owner."
      },
      "renounceOwnership()": {
        "details": "Leaves the contract without owner. It will not be possible to call `onlyOwner` functions anymore. Can only be called by the current owner. NOTE: Renouncing ownership will leave the contract without an owner, thereby removing any functionality that is only available to the owner."
      },
      "transferOwnership(address)": {
        "details": "Transfers ownership of the contract to a new account (`newOwner`). Can only be called by the current owner."
      }
    },
    "stateVariables": {
      "UBI": {
        "details": "address of the UBI token."
      },
      "Uniswap": {
        "details": "address of the uniswap router."
      }
    },
    "version": 1
  },
  "userdoc": {
    "kind": "user",
    "methods": {},
    "version": 1
  },
  "storageLayout": {
    "storage": [
      {
        "astId": 7,
        "contract": "contracts/SwapBurner.sol:SwapBurner",
        "label": "_owner",
        "offset": 0,
        "slot": "0",
        "type": "t_address"
      },
      {
        "astId": 3694,
        "contract": "contracts/SwapBurner.sol:SwapBurner",
        "label": "Uniswap",
        "offset": 0,
        "slot": "1",
        "type": "t_address"
      },
      {
        "astId": 3699,
        "contract": "contracts/SwapBurner.sol:SwapBurner",
        "label": "swapDeadline",
        "offset": 0,
        "slot": "2",
        "type": "t_uint256"
      }
    ],
    "types": {
      "t_address": {
        "encoding": "inplace",
        "label": "address",
        "numberOfBytes": "20"
      },
      "t_uint256": {
        "encoding": "inplace",
        "label": "uint256",
        "numberOfBytes": "32"
      }
    }
  }
}